:100000000C9468160C9492160C9492160C949216FA
:100010000C9492160C9492160C9492160C949216C0
:100020000C9492160C9492160C9492160C949216B0
:100030000C9492160C9444370C9492160C949216CD
:100040000C9492160C9450670C9408D10C94921650
:100050000C9440BD0C9492160C9492160C9492162B
:100060000C9492160C9492160C9492160C94921670
:100070000C9492160C9492160C9492160C94921660
:100080000C9483D20C9492160C94921643534853BA
:100090004D535753855385536153695371537B5364
:1000A00037601D60206023602660326029604360F5
:1000B0002C602F6005C8CCC603C741C803C703C75F
:1000C00003C703C703C703C703C703C703C703C7E0
:1000D00003C703C703C703C703C703C703C703C7D0
:1000E00003C703C703C703C703C703C703C703C7C0
:1000F0003BC803C703C703C703C703C703C703C777
:1001000003C714C803C703C703C703C703C703C78D
:1001100003C703C703C703C758C800C793D096D007
:1001200089D08DD0ADD0ADD09AD09ED0A4D0A8D05B
:100130004E414E494E495459494E46CDCCCC3D0ACC
:10014000D7233C17B7D13877CC2B329595E6241FAF
:10015000B14F0A000020410000C84200401C462068
:10016000BCBE4CCA1B0E5AAEC59D7400407A10F33B
:100170005A00A0724E18090010A5D4E80000E876D5
:1001800048170000E40B54020000CA9A3B0000002C
:10019000E1F505000080969800000040420F000045
:1001A00000A08601000000102700000000E8030006
:1001B0000000006400000000000A000000000001D0
:1001C00000000000002C76D888DC674F0823DFC1D0
:1001D000DFAE59E1B1B796E5E3E453C63AE651998B
:1001E0007696E8E6C28426EB898C9B62ED407C6FB4
:1001F000FCEFBC9C9F40F2BAA56FA5F490055A2A6B
:10020000F75C936B6CF9676DC11BFCE0E40D47FE76
:10021000F520E6B500D0ED902E030094357705006B
:1002200080841E080000204E0A000000C80C3333F2
:1002300033330F986E12831141EF8D2114893BE601
:100240005516CFFEE6DB18D1844B381BF77C1D908A
:100250001DA4BBE424203284725E228100C9F124F3
:10026000ECA1E53D27536C6565702E2E2E00486F7E
:100270006D652058592066697273740A00486F6D65
:100280006520585920666972737400205A3A20001C
:1002900020593A200042656420583A20004D657389
:1002A0006820706F696E742063616E6E6F74206277
:1002B00065207265736F6C7665640A00436C6963D0
:1002C0006B20746F20726573756D652E2E2E004E37
:1002D0006F206D6F76652E00456E642066696C65D3
:1002E000206C6973740A00426567696E2066696CE8
:1002F00065206C6973740A004D31323500286E6FC9
:100300002066696C6529005344207072696E7469B7
:100310006E67206279746520004E6F74205344200C
:100320007072696E74696E670A0043757272656EE9
:10033000742066696C653A200046696C65206465C6
:100340006C657465643A0044656C6574696F6E2011
:100350006661696C65642C2046696C653A200025ED
:1003600069730025696D202569730025696820255A
:10037000696D202569730025696420256968202539
:10038000696D202569730025697920256964202518
:1003900069682025696D20256973005072696E7443
:1003A0002074696D653A20004B494C4C45442E2021
:1003B000006F6B0020573A004520436F6F6C696EE9
:1003C000672E2E2E00452048656174696E672E2EBB
:1003D0002E0020573A0042656420636F6F6C696E8F
:1003E000672E2E2E004265642068656174696E6711
:1003F0002E2E2E005448334420424C546F756368AF
:10040000204F66662E002C20002C20004649524DBD
:10041000574152455F4E414D453A4D61726C696E90
:1004200020544833442055312E52322E423320532B
:100430004F555243455F434F44455F55524C3A2018
:1004400050524F544F434F4C5F56455253494F4EB5
:100450003A312E30204D414348494E455F54595062
:10046000453A5448334420424C546F7563682045E4
:10047000585452554445525F434F554E543A3120DB
:10048000555549443A0A002F2F200020540020528D
:1004900000416363656C65726174696F6E3A2050E8
:1004A000005741524E494E4721204C6F77205A2029
:1004B0004A65726B206D6179206C65616420746F90
:1004C00020756E77616E74656420706175736573F5
:1004D0002E0A0020466C6F773A2000206F7574203A
:1004E0006F662072616E67650A00536572766F20D1
:1004F000003A200020536572766F200050726F62C0
:1005000065205A204F66667365743A200020643A6D
:100510000020693A0020703A00496E76616C696487
:100520002065787472756465720A004E6F2063618D
:100530007365206C696768740A00426564204C65C5
:1005400076656C696E6720004661696C656420742D
:100550006F20656E61626C6520426564204C657633
:10056000656C696E670A00454550524F4D204F4BF0
:100570000A003F5A206F7574206F662072616E67A3
:100580006520282D3520746F2031290A003A20007B
:1005900050726F6265205A204F6666736574004121
:1005A00063746976652045787472756465723A2063
:1005B00000496E76616C6964206578747275646553
:1005C000720A0057726974696E6720746F206669D9
:1005D0006C653A20006F70656E206661696C6564B9
:1005E0002C2046696C653A20006F70656E2066614C
:1005F000696C65642C2046696C653A200046696C1C
:10060000652073656C65637465640A002053697ABC
:10061000653A200046696C65206F70656E65643AC6
:1006200020002066696C653A2000646F696E67007F
:100630006672657368004E6F772000454E44205304
:100640005542524F5554494E450A002220706F734F
:10065000002220706172656E743A22005355425236
:100660004F5554494E452043414C4C2074617267AC
:1006700065743A22004B494C4C45442E200074725C
:1006800079696E6720746F2063616C6C207375628A
:100690002D67636F64652066696C65732077697484
:1006A0006820746F6F206D616E79206C6576656C63
:1006B000732E204D4158206C6576656C2069733A25
:1006C000004572726F723A006F70656E20666169E4
:1006D0006C65642C2046696C653A200043616E6E3F
:1006E0006F74206F70656E2073756264697220008C
:1006F0006563686F3A0000002200250028002B0087
:1007000000002100240027002A0002020202020247
:1007100002020404040404040404030303030303A3
:10072000030301010101010101010102040810207C
:1007300040800102040810204080010204081020BB
:100740004080804020100804020124F4D43050C3BB
:100750008E20C2A24017828B7011127A910D816C8B
:10076000D90AA861E108C7586607615143061E4BC4
:100770005D05C145A7041A411104093D980371396B
:1007800031034036DB0265339102D4305402802EAF
:100790001D02632CEE01752AC501B028A0011027A7
:1007A00081018F2564012B244B01E0223401AC210F
:1007B0001F018D200D01801FFC00841EED00971D80
:1007C000DF00B81CD200E61BC600201BBC00641A68
:1007D000B200B219A8000A19A0006A189900D1172E
:1007E000910040178B00B516840031167E00B315BA
:1007F00079003A157300C7146F0058146A00EE139D
:1008000066008813630025135E00C7125B006C123C
:10081000570015125400C111510070114F002111E1
:100820004B00D61049008D104700461044000210BE
:100830004200C00F4000800F3E00420F3C00060FF8
:100840003B00CB0E3800930E37005C0E3500270EB0
:100850003400F30D3200C10D3100900D3000600DF9
:100860002E00320D2D00050D2C00D90C2B00AE0CE6
:100870002900850C29005C0C2700350C27000E0C84
:100880002600E80B2400C40B2400A00B23007D0BE2
:1008900023005A0B2100390B2100180B2000F80A05
:1008A0001F00D90A1E00BB0A1E009D0A1D00800AF7
:1008B0001D00630A1C00470A1B002C0A1B00110ABA
:1008C0001A00F7091A00DD091900C4091900AB095B
:1008D0001900920917007B091800630917004C09D9
:1008E000160036091600200916000A091500F50839
:1008F0001500E0081400CC081400B8081400A4087F
:100900001400900813007D0812006B0813005808AB
:1009100012004608120034081100230811001208C2
:10092000110001081100F0071000E0071000D007C7
:100930001000C0071000B0070F00A10710009107BA
:100940000E0083070F0074070F0065070E0057079E
:100950000E0049070E003B070D002E070E00200772
:100960000D0013070D0006070D00F9060C00ED063B
:100970000D00E0060C00D4060C00C8060C00BC06F6
:100980000C00B0060C00A4060B0099060C008D06A6
:100990000B0082060B0077060B006C060B0061064D
:1009A0000A0057060B004C060A0042060A003806E9
:1009B0000A002E060A0024060A001A060A0010067B
:1009C000090007060A00FD050900F4050900EB050A
:1009D0000900E2050900D9050900D0050900C7058D
:1009E0000900BE050900B5050800AD050800A5050C
:1009F00009009C050800940508008C050800840582
:100A000008007C050800740508006C0507006505F2
:100A100008005D050700560508004E05070047055C
:100A200007004005080038050700310507002A05C2
:100A30000700230507001C050600160507000F0523
:100A400007000805060002050700FB040600F50480
:100A50000700EE040600E8040600E2040700DB04D9
:100A60000600D5040600CF040600C9040600C3042E
:100A70000600BD040600B7040600B1040500AC047E
:100A80000600A6040600A00405009B0406009504C9
:100A90000500900406008A04050085040500800412
:100AA00006007A04050075040500700405006B0457
:100AB000050066040500610405005C040500570498
:100AC0000500520405004D040500480405004304D8
:100AD00005003E0404003A04050035040500300416
:100AE00004002C04050027040400230405001E0450
:100AF00004001A04040016040500110404000D0487
:100B00000400090405000404040000040400FC03BC
:100B10000400F8030400F4030400F0030400EC03F1
:100B20000400E8030400E4030400E0030400DC0321
:100B30000400D8030400D4030400D0030400CC0351
:100B40000400C8030300C503030024F404D9201BD8
:100B5000C40C5C0E9804C4095F0265077101F405BA
:100B6000F900FB04B30048048700C103690058037F
:100B7000550003034500BE023A00840231005302CF
:100B80002A002902250004022000E4011C00C801FB
:100B90001900AF01170098011400840113007101BE
:100BA00010006101100051010E0043010D003601DB
:100BB0000B002B010B0020010B00150109000C019B
:100BC000090003010800FB000800F3000800EB0027
:100BD0000700E4000600DE000600D8000600D20090
:100BE0000600CC000500C7000500C2000500BD00DE
:100BF0000400B9000400B5000400B1000400AD0019
:100C00000400A9000400A5000300A20003009F0047
:100C100004009B000300980003009500020093006D
:100C20000300900003008D0002008B000300880089
:100C300002008600020084000300810002007F00A1
:100C400002007D0002007B000200790002007700B4
:100C500001007600020074000200720001007100C1
:100C600002006F0002006D0001006C0002006A00CB
:100C700001006900020067000100660001006500D4
:100C800001006400020062000100610001006000D8
:100C900001005F0002005D0001005C0001005B00DC
:100CA00001005A00010059000100580001005700DE
:100CB00001005600010055000100540001005300DE
:100CC00000005300010052000100510001005000DB
:100CD00001004F0001004E0000004E0001004D00D9
:100CE00001004C0001004B0000004B0001004A00D5
:100CF00001004900010048000000480001004700D1
:100D000001004600000046000100450000004500CB
:100D100001004400010043000000430001004200C4
:100D200000004200010041000000410001004000BD
:100D300001003F0000003F0001003E0000003E00B7
:100D400001003D0000003D0001003C0000003C00AF
:100D500000003C0001003B0000003B0001003A00A5
:100D600000003A000100390000003900010038009D
:100D70000000380000003800010037000000370094
:100D8000010036000000360000003600010035008A
:100D90000000350000003500010034000000340080
:100DA0000000340001003300000033000000330075
:100DB000010032000000320000003200010031006A
:100DC0000000310000003100010030000000300060
:100DD0000000300001002F0000002F0000002F0055
:100DE00000002F0001002E0000002E0000002E0049
:100DF00001002D0000002D0000002D0000002D003E
:100E000001002C0000002C0000002C0000002C0031
:100E100001002B0000002B0000002B0000002B0025
:100E200001002A0000002A0000002A0000002A0019
:100E3000010029000000290000002900000029000D
:100E40000000290001002800000028000000280000
:100E500000002800000028000100270000002700F3
:100E600000002700000027000000270001002600E6
:100E700000002600000026000000260000002600DA
:100E800001002500000025000000250000002500CD
:100E900000002500000025000100240000002400BF
:100EA00000002400000024000000240001002300B2
:100EB00000002300000023000000230000002300A6
:100EC0000000230000002300010022000000220097
:100ED000000022000000220000002200000022008A
:100EE000010021000000210000002100000021007D
:100EF000000021000000210000002100010020006E
:100F00000000200000002000000020000000200061
:100F100000002000000020000000200001001F0051
:100F200000001F0000001F0000001F0000001F0045
:100F300000001F0000001F0001001E0000001E0036
:100F400000001E0000001E000000043700001E29E3
:100F50000000511B00005810000010090000CC04D4
:100F6000000078020000410100006265640A002C64
:100F70002073797374656D2073746F70706564216C
:100F8000204865617465725F49443A200042656497
:100F90002068656174696E67206661696C656400CC
:100FA00048656174696E67206661696C65640045B7
:100FB000312048656174696E67206661696C65649B
:100FC0000048656174696E67206661696C656400DC
:100FD0002020506C616E6E65724275666665724265
:100FE000797465733A20002046726565204D656D01
:100FF0006F72793A2000436F6D70696C65643A20B6
:101000004A756E20313120323032300A00207C2087
:10101000417574686F723A202854483344290A0095
:1010200000204C61737420557064617465643A20CB
:1010300000544833442055312E52322E42330A0098
:101040004D61726C696E0020536F667477617265D2
:101050002052657365740A00205761746368646F79
:10106000672052657365740A002042726F776E20A4
:101070006F75742052657365740A00204578746535
:10108000726E616C2052657365740A00506F7765EB
:101090007255700A0073746172740A006175746F1E
:1010A00025692E67006572726F72207772697469A4
:1010B0006E6720746F2066696C650A00456E647304
:1010C000746F7073202563202563202563202563BA
:1010D00000205A3A0020593A0020583A00656E64C0
:1010E00073746F7073206869743A2000446F6E6582
:1010F00020736176696E672066696C652E0A004D03
:1011000032390020746F6F206C6F6E6720657874C1
:10111000727573696F6E2070726576656E74656442
:101120000A0020636F6C6420657874727573696F50
:101130006E2070726576656E7465640A006F6B0070
:1011400020746F6F206C6F6E672065787472757392
:10115000696F6E2070726576656E7465640A002032
:10116000636F6C6420657874727573696F6E20703C
:10117000726576656E7465640A00627573793A20EB
:1011800070617573656420666F7220696E70757426
:101190000A00627573793A20706175736564206620
:1011A0006F7220757365720A00627573793A2070E8
:1011B000726F63657373696E670A00506C65617363
:1011C00065207265736574005052494E5445522033
:1011D00048414C544544005072696E7465722068F1
:1011E000616C7465642E206B696C6C2829206361C6
:1011F0006C6C6564210A00656E7175657565696E54
:101200006720220000000000000000000000000035
:10121000000020420000204200008040000000004A
:101220005761726E696E673A20486F6D696E67200C
:1012300042756D702044697669736F72203C20316D
:101240000A000202040000A0400000A040000000CC
:101250004000006B4300006B4300007A43FFFFFF38
:101260004D3234004D323320257300556E6B6E6F56
:10127000776E20636F6D6D616E643A202200496E57
:10128000736572742066696C616D656E7420616E41
:101290006420707265737320627574746F6E202899
:1012A0006F72204D313038290A00486F74656E64C2
:1012B00020746F6F20636F6C640A0050726F6269F4
:1012C0006E67206661696C65640A0050726F6269BE
:1012D0006E67206661696C656400205A3A200020C0
:1012E000593A200042656420583A20005344206354
:1012F000617264206F6B0A006F70656E526F6F745D
:10130000206661696C65640A00766F6C756D652E88
:10131000696E6974206661696C65640A00534420D3
:10132000696E6974206661696C0A00486F6D65209A
:1013300025732573257320666972737400206669AE
:101340007273740A005A0059005800486F6D652086
:101350000070012C0190012701B0012201C0011D84
:1013600001F00118011002130130020E01600209A0
:101370000190020401C002FF000003FA004003F5DF
:10138000008003F000D003EB002004E6007004E1CD
:1013900000E004DC004005D700C005D2004006CDC7
:1013A00000D006C8008007C3003008BE00F008B9AE
:1013B00000C009B400B00AAF00B00BAA00D00CA561
:1013C00000000EA000500F9B00C01096005012911C
:1013D0000000148C00C0158700B0178200B0197D82
:1013E00000D01B7800001E730040206E0090226920
:1013F00000F024640040275F0090295A00E02B553C
:1014000000102E500020304B0010324600E03341D7
:101410000090353C001037370070383200A0392D6D
:1014200000B03A2800A03B2300603C1E00103D198C
:1014300000903D1400103E0F00703E0A00C03E05B3
:1014400000003F0000403FFBFF803FF6FFC03FF140
:10145000FF1000C90210012C014001220170011887
:1014600001B0010E01F00104015002FA00B002F0D7
:10147000003003E600D003DC009004D2007005C801
:1014800000A006BE000008B400B009AA00D00BA05E
:1014900000600E960060118C000015820020197803
:1014A00000C01D6E00A0226400B0275A00902C508E
:1014B0000000314600E0343C0010383200903A28F9
:1014C00000603C1E00A03D1400803E0A00203F004A
:1014D00000453120544845524D414C2052554E4113
:1014E0005741590042454420544845524D414C20F3
:1014F00052554E4157415900546865726D616C20D8
:1015000052756E61776179004531204572723A20DB
:101510004D415854454D50004572723A204D415846
:1015200054454D5020424544004D415854454D507E
:101530002074726967676572656400453120457281
:10154000723A204D494E54454D50004572723A2032
:101550004D494E54454D5020424544004D494E544E
:10156000454D502074726967676572656400202F6D
:10157000002042403A0020403A0020496E76616CDB
:1015800069642065787472756465722000000000DB
:1015900000000000000000000000006B4300006B32
:1015A0004300007A4342696C696E656172204C6544
:1015B00076656C696E6720477269643A0A00202874
:1015C00044525952554E2900473239204175746FA3
:1015D00020426564204C6576656C696E67003F202B
:1015E000284C2C522C462C4229206F7574206F6693
:1015F00020626F756E64732E0A003F28562965724B
:10160000626F7365206C6576656C20697320696D07
:10161000706C61757369626C652028302D34292ED9
:101620000A00426164205A2076616C75650A004E9A
:101630006F2062696C696E65617220677269640A05
:10164000004D6F76652058004D6F76652059004D2E
:101650006F7665205A004578747275646572004D26
:101660006F766520302E316D6D004D6F76652031BF
:101670006D6D004D6F76652031306D6D004D6F766C
:1016800065206178697300457874727564657200CD
:101690004D6F7665205A004D6F76652059004D6F6D
:1016A00076652058004578747275646572004D6FD8
:1016B0007665205A004D6F76652059004D6F76652E
:1016C00020580050726570617265005265736574D0
:1016D00020454550524F4D00436F6E74726F6C0041
:1016E000526573657420454550524F4D0053746FD9
:1016F00072652073657474696E677300424C546F31
:10170000756368004D6F74696F6E0054656D706528
:10171000726174757265004D61696E004D333033CE
:101720002055312045256920532569005049442022
:101730004175746F74756E6500504944204175742D
:101740006F74756E65005049442D44005049442D16
:1017500044005049442D49005049442D4900504906
:10176000442D50005049442D500046616E20737046
:101770006565640046616E2073706565640042654E
:101780006400426564004E6F7A7A6C65004E6F7A31
:101790007A6C6500436F6E74726F6C004D3630303A
:1017A0003A20546F6F20636F6C6400486F74656EED
:1017B0006420746F6F20636F6C640A004D343820AE
:1017C000526573756C743A202573005374616E64AE
:1017D00061726420446576696174696F6E3A2000B5
:1017E00046696E6973686564210A003F2028582C99
:1017F0005929206F7574206F6620626F756E64734F
:101800002E0A004D343820546573742052756E6E64
:10181000696E672E2E2E0A00205A3A0020593A008F
:1018200020436F756E7420583A0020453A00205AC4
:101830003A0020593A00583A0023646566696E659B
:101840002044454641554C545F4B64200023646559
:1018500066696E652044454641554C545F4B69208E
:101860000023646566696E652044454641554C54C5
:101870005F4B702000504944204175746F74756E41
:10188000652066696E6973686564212050757420EF
:10189000746865206C617374204B702C204B692038
:1018A000616E64204B6420636F6E7374616E747339
:1018B0002066726F6D2062656C6F7720696E746F41
:1018C00020436F6E66696775726174696F6E2E680A
:1018D0000A00504944204175746F74756E65206626
:1018E00061696C6564212074696D656F75740A00A7
:1018F000453120544845524D414C2052554E415798
:10190000415900546865726D616C2052756E617743
:1019100061790045312048656174696E67206661B0
:10192000696C65640048656174696E672066616909
:101930006C656400504944204175746F74756E6520
:10194000206661696C6564212054656D7065726103
:101950007475726520746F6F20686967680A00206B
:101960004B643A2000204B693A2000204B703A200B
:10197000000A20436C617373696320504944200A54
:10198000002054753A2000204B753A2000206D61EC
:10199000783A2000206D696E3A200020643A2000D9
:1019A00020626961733A2000504944204175746F88
:1019B00074756E65206661696C6564212054656D7F
:1019C000706572617475726520746F6F20686967E5
:1019D000680A00504944204175746F74756E652023
:1019E00073746172740A00504944204175746F74B5
:1019F000756E65206661696C6564212042616420B2
:101A00006578747275646572206E756D6265720AB0
:101A100000496E736572742066696C616D656E74E1
:101A200020616E6420707265737320627574746FC8
:101A30006E0A00507265737320627574746F6E2045
:101A4000746F2068656174206E6F7A7A6C650A0025
:101A5000496E736572742066696C616D656E742081
:101A6000616E6420707265737320627574746F6E3A
:101A700020286F72204D313038290A0020204E6F07
:101A80007A7A6C653A20002000506C65617365209D
:101A9000776169742E2E2E0048656174696E672027
:101AA0006E6F7A7A6C650020204E6F7A7A6C653A98
:101AB0002000200068656174206E6F7A7A6C652E54
:101AC00000507265737320627574746F6E20746F4A
:101AD0000020204E6F7A7A6C653A2000746F206384
:101AE0006F6E74696E75652E2E2E00616E642070A7
:101AF0007265737320627574746F6E00496E7365DE
:101B000072742066696C616D656E740020204E6F82
:101B10007A7A6C653A2000200066696C616D656EAA
:101B200074206C6F6164005761697420666F720085
:101B300020204E6F7A7A6C653A2000200066696C2E
:101B4000616D656E742070757267650057616974A8
:101B500020666F7200746F20726573756D65005733
:101B600061697420666F72207072696E740000067D
:101B70000900FE0701920321207FFF07FF07FF00F6
:101B800000000600000107070602008080808080B8
:101B90000080030202060105A0A005070706000059
:101BA0005050F850F850500507070600002078A064
:101BB0007028F020050707060000C0C810204098D4
:101BC000180507070600006090A040A8906802036F
:101BD00003060104C040800307070601002040807F
:101BE000808040200307070601008040202020401D
:101BF0008005050506000120A870A820050505063A
:101C000000012020F820200203030602FFC04080CC
:101C1000050101060003F8020202060200C0C00529
:101C20000505060001081020408005070706000092
:101C30007088888888887003070706010040C040C4
:101C4000404040E00507070600007088087080806B
:101C5000F8050707060000F81020100808F005072F
:101C60000706000010305090F81010050707060016
:101C700000F880F0080888700507070600007080EB
:101C800080F0888870050707060000F808102020FB
:101C90002020050707060000708888708888700576
:101CA0000707060000708888780808700205050696
:101CB0000200C0C000C0C00206060602FFC0C0008D
:101CC000C04080040707060000102040804020101C
:101CD000050303060002F800F80407070601008068
:101CE000402010204080050707060000708808107B
:101CF00020002005070706000070880868A8A87063
:101D0000050707060000708888F888888805070797
:101D1000060000F08888F08888F0050707060000B4
:101D200070888080808870050707060000F088882A
:101D3000888888F0050707060000F88080F080801A
:101D4000F8050707060000F88080F080808005070E
:101D500007060000708880B88888700507070600AD
:101D600000888888F8888888010707060200808034
:101D70008080808080050707060000381010101052
:101D800090600507070600008890A0C0A090880515
:101D90000707060000808080808080F8050707061E
:101DA000000088D8A888888888050707060000886A
:101DB00088C8A89888880507070600007088888862
:101DC000888870050707060000F08888F08080800A
:101DD00005070706000070888888A890680507072F
:101DE000060000F08888F0A090880507070600002C
:101DF000788080700808F0050707060000F82020AA
:101E00002020202005070706000088888888888809
:101E10007005070706000088888888885020050715
:101E2000070600008888888888A8500507070600EC
:101E30000088885020508888050707060000888899
:101E40008850202020050707060000F808102040D1
:101E500080F8030707060100E08080808080E005AD
:101E60000505060001804020100803070706010051
:101E7000E02020202020E0050303060004205088F5
:101E8000050101060000F802020206020580400575
:101E90000505060000700878887805070706000029
:101EA0008080B0C88888F005050506000070808035
:101EB0008870050707060000080868988888780574
:101EC00005050600007088F8807005070706000009
:101ED0003048E0404040400506060600FF70888814
:101EE0007808700507070600008080B0C8888888D9
:101EF00001070706020080008080808080030808B8
:101F00000601FF200020202020A040040707060033
:101F100000808090A0C0A090030707060100C04089
:101F200040404040E0050505060000D0A8A8A8A84C
:101F3000050505060000B0C8888888050505060067
:101F40000070888888700506060600FFF08888F013
:101F500080800506060600FF788888780808050551
:101F600005060000B0C880808005050506000070E9
:101F7000807008F00407070600004040E040404041
:101F8000300505050600008888889868050505065F
:101F9000000088888850200505050600008888A86C
:101FA000A850050505060000885020508805060643
:101FB0000600FF888888780870050505060000F887
:101FC000102040F8030707060100204040804040F1
:101FD0002001070706020080808080808080030740
:101FE00007060100804040204040800502020600B4
:101FF0000268900000000600004368616E6765207B
:1020000066696C616D656E74004368616E6765201A
:1020100066696C616D656E74004D363030204230FB
:102020000050726F6265205A204F666673657400B7
:10203000466C6F7700466C6F770046616E20737058
:102040006565640046616E20737065656400426575
:102050006400426564004E6F7A7A6C65004E6F7A58
:102060007A6C650053706565640053706565640043
:102070004D61696E005072656865617420504C4115
:1020800020456E64005072656865617420504C4153
:1020900020426564005072656865617420504C414F
:1020A0000050726570617265005072656865617498
:1020B0002041425320456E6400507265686561742A
:1020C0002041425320426564005072656865617426
:1020D0002041425300507265706172650050726514
:1020E000686561742041425300507265686561748F
:1020F00020504C4100436F6F6C646F776E004368F3
:10210000616E67652066696C616D656E7400436819
:10211000616E67652066696C616D656E74004D3631
:1021200030302042300044697361626C6520737402
:10213000657070657273004D38340052756E204DB5
:1021400034382054657374004732380A4D343820CF
:1021500050313000486F6D65205A00473238205AA0
:1021600000486F6D65205900473238205900486F8C
:102170006D652058004732382058004175746F2033
:10218000686F6D6500473238004D6F766520617865
:102190006973004D61696E00454550524F4D206492
:1021A00061746173697A65206572726F722E0A00BC
:1021B000290A002062797465733B206372632000F2
:1021C00053657474696E67732053746F726564200D
:1021D0002800290A002062797465733B20637263CA
:1021E00020002073746F7265642073657474696E67
:1021F00067732072657472696576656420280020B3
:102200002863616C63756C6174656429210A002020
:10221000213D2000454550524F4D20435243206DF3
:1022200069736D61746368202D202873746F726503
:10223000642920002053697A653A2000496E64655C
:10224000783A2000204D61726C696E3D5635362912
:102250000A0028454550524F4D3D00454550524FCC
:102260004D2076657273696F6E206D69736D617450
:102270006368200000060900FE000000000001095C
:102280000008FE000005080806000040F0C8888825
:10229000987810050808060000C0F88888888888A3
:1022A000F80505050600012030F83020050808066D
:1022B00000002070F820202020E00509090600FF1A
:1022C0002070A8A8B8888870200509090600FFE0DA
:1022D00080C0B0A8283028280509090600FFF8A802
:1022E0008888888888A8F8050A0A0600FE205050C9
:1022F000505088A8A8887003030306000340A0403C
:1023000025753A2530327500253032753A25303240
:10231000750025756420253032753A2530327500F8
:102320005A00590058000920000000000000000079
:1023300000000000003FFFF000000000000000006F
:1023400000000000380070000000000000000000E5
:1023500000000030FC300000000000000000000021
:10236000000020FC10000000000000000000000041
:1023700000207810000000000000000000000000B5
:102380002030100000000000000000000000002CC1
:1023900000D03FC0000000000000002082002E316D
:1023A000D07FE0000000000000001041002F7BD033
:1023B0007FE0000000000000001041002F7BD07F74
:1023C000E0000000000000002082002E31D03FC05D
:1023D000000000000000004104002C00D03FC000BD
:1023E0000000000000008208002030107FE00000A4
:1023F00000000000008208002078107FE00000004C
:102400000000000041040020FC107FE000000000FC
:1024100000000020820030FC301F8000000000001F
:1024200000000000003800700F00000000000000F5
:1024300000FFFFC03FFFF0060000000000000000AA
:10244000FFFFC000000000000000000000000000CE
:1024500000003FFFF000000000000000000000004E
:1024600000380070000000000000000000000000C4
:102470003186300000000000000000000000002352
:102480008710000000000000000000000000278707
:10249000900000000000000000000000002F87D026
:1024A0000000000000000000000000002F03D03FEB
:1024B000C0000000000000002082002030107FE0FB
:1024C000000000000000001041002078107FE000B4
:1024D0000000000000001041002078107FE00000A4
:1024E00000000000002082002030103FC0000000EB
:1024F000000000004104002F03D03FC00000000096
:102500000000008208002F87D07FE000000000005C
:1025100000008208002787907FE000000000000094
:10252000004104002387107FE0000000000000004D
:102530002082003186301F80000000000000000073
:1025400000003800700F0000000000000000FFFFD6
:10255000C03FFFF0060000000000000000FFFFC0C9
:1025600000000048617264636F64656420446566BE
:1025700061756C742053657474696E6773204C6F59
:10258000616465640A00F401000020030000F401A6
:10259000000088130000000048430000484300008A
:1025A0007041000048420000A0420000A04200002C
:1025B000C8430000BE423A0A0020286D6D29002061
:1025C000204D383531205A005A2D50726F626520E7
:1025D0004F66667365740020440020490020204D3A
:1025E0003330312050005049442073657474696E53
:1025F00067733A0A00205A00204A002020473239E7
:10260000205720490020204D34323020530041759E
:10261000746F20426564204C6576656C696E673A1C
:102620000A00204500205A0020590020580020545C
:102630000020530020204D32303520510020453CF1
:102640006D61785F655F6A65726B3E0020583C6D16
:1026500061785F785F6A65726B3E20593C6D617886
:102660005F795F6A65726B3E205A3C6D61785F7A74
:102670005F6A65726B3E00416476616E6365643AC1
:1026800020513C6D696E5F7365676D656E745F7434
:10269000696D655F75733E20533C6D696E5F66655D
:1026A0006564726174653E20543C6D696E5F74723E
:1026B0006176656C5F66656564726174653E002075
:1026C000540020520020204D32303420500041630D
:1026D00063656C65726174696F6E2028756E6974CC
:1026E000732F7332293A20503C7072696E745F61A7
:1026F0006363656C3E20523C726574726163745F03
:10270000616363656C3E20543C74726176656C5FF6
:10271000616363656C3E0A00204500205A00205921
:102720000020204D3230312058004D6178696D75A0
:102730006D20416363656C65726174696F6E2028FA
:10274000756E6974732F7332293A0A002045002090
:102750005A0020590020204D3230332058004D615E
:1027600078696D756D206665656472617465732046
:1027700028756E6974732F73293A0A00204500206A
:102780005A0020590020204D3932205800537465DA
:1027900070732070657220756E69743A0A0020208B
:1027A0004D3134392043203B20556E6974732069C4
:1027B0006E2043656C736975730A002020473231BF
:1027C000202020203B00486F6D696E67206661699C
:1027D0006C656400545249474745524544006F7048
:1027E000656E003A20007A5F6D696E00795F6D69F1
:1027F0006E00785F6D696E005265706F7274696EFD
:102800006720656E6473746F702073746174757380
:102810000A007C3C3E5E2B3D3F2F5B5D3B2C2A2219
:102820005C004B494C4C45442E200053544F5050B3
:1028300045442E20005072696E7465722073746F67
:10284000707065642064756520746F206572726FA6
:1028500072732E2046697820746865206572726FE5
:102860007220616E6420757365204D39393920748A
:102870006F20726573746172742E202854656D70B8
:102880006572617475726520697320726573657411
:102890002E205365742069742061667465722072FD
:1028A000657374617274696E67290A004E6F204304
:1028B0006865636B73756D2077697468206C696EE9
:1028C00065206E756D6265722C204C617374204CAE
:1028D000696E653A20004E6F20436865636B7375BF
:1028E0006D2077697468206C696E65206E756D6205
:1028F00065722C204C617374204C696E653A20001F
:10290000636865636B73756D206D69736D61746366
:10291000682C204C617374204C696E653A20004C21
:10292000696E65204E756D626572206973206E6FE9
:1029300074204C617374204C696E65204E756D6215
:1029400065722B312C204C617374204C696E653A92
:1029500020004D313130004D333100534420726539
:102960006164206572726F720A00446F6E65207038
:1029700072696E74696E672066696C650A005072D0
:102980006F6265205A204F666673657400436F6EF0
:1029900074726F6C0043616E6E6F7420656E746547
:1029A00072207375626469723A2000022E2E000153
:1029B00052656672657368004D61696E004D37300F
:1029C0003220542564004D363030204230205425CA
:1029D00064004D373032203B2564004D37303120C4
:1029E000542564004368616E67652066696C616D9B
:1029F000656E7400507265686561742041425300D1
:102A00005072656865617420504C41004368616E86
:102A100067652066696C616D656E74005052494E41
:102A2000542050415553454400554E4C4F4144208D
:102A300046494C414D454E54004C4F414420464977
:102A40004C414D454E54005075726765206D6F7254
:102A50006500436F6E74696E756500524553554D40
:102A600045204F5054494F4E533A0020204E6F7A24
:102A70007A6C653A20006368616E6765006F662056
:102A80007468652066696C616D656E740057616974
:102A90007420666F722073746172740020204E6F10
:102AA0007A7A6C653A2000200066696C616D656E0B
:102AB0007420756E6C6F6164005761697420666F75
:102AC00072005448334420424C546F75636820525E
:102AD000656164792E005072696E74696E672E2E7E
:102AE0002E005072696E74207061757365640043C6
:102AF0006D643A2053746F7700436D643A204465E7
:102B0000706C6F7900436D643A2053572D4D6F649C
:102B10006500436D643A2053656C662D546573748B
:102B200000436D643A205265736574004D61696EAF
:102B3000004D313235004D3234005072696E7420D0
:102B400061626F72746564004D3231004E6F2053C4
:102B5000442063617264004368616E67652053447A
:102B60002063617264004D3231005072696E7420CE
:102B700066726F6D2053440053746F7020707269D9
:102B80006E7400526573756D65207072696E7400A5
:102B9000496E69742E205344206361726400506151
:102BA000757365207072696E7400436F6E74726F16
:102BB0006C00507265706172650054756E650049F5
:102BC0006E666F2073637265656E000E000E000EF8
:102BD000000E000E000E000E000E007FC03F801F92
:102BE000000E00040004000E001F003F807FC00E96
:102BF000000E000E000E000E000E000E000E000370
:102C0000F8000FFE001E0F00380700380380700325
:102C100080700FE07007C0700380700100700000CA
:102C20003800003807001E0F000FFE0003F80000F8
:102C3000FE0003FF800783C00E01C00E00E01C00F1
:102C4000E07F00E03E00E01C00E00800E00000E063
:102C50000001C00E01C00F078007FF0001FC00FF4C
:102C6000FFFF7F80FFC0FFC0FFC07F807F80FFC06D
:102C7000FFC0FFC03F001E000C0050726F62652055
:102C80005A204F6666736574004572726F722077C2
:102C9000726974696E6720746F20454550524F4DBC
:102CA000210A00000000010200090A0000000004DF
:102CB0000308070000000000000000000000000002
:102CC000000000526573656E643A2000EBD60EDC9E
:102CD00011241FBECFEFD0E4DEBFCDBF12E0A0E0D5
:102CE000B1E0E0E9FCED01E00BBF02C007900D92FE
:102CF000A635B107D9F726E1A6E5B2E001C01D92DD
:102D0000A43AB207E1F716E1C7E6D6E104C021977D
:102D1000FE010E94A7EDC636D107C9F70E9497D7DA
:102D20000C943BEE0C9400002F923F924F925F92D6
:102D30006F927F928F929F92AF92BF92CF92DF92CB
:102D4000EF92FF920F931F93CF93DF93CDB7DEB730
:102D5000C254D1090FB6F894DEBF0FBECDBF21E03B
:102D60002093DA0B80911B168D3409F467C38435E8
:102D700011F40C943F26873411F00C948B2680912B
:102D8000191690911A168D31910509F435C184F404
:102D90008430910509F4B2C01CF4029788F14AC34B
:102DA0008B31910509F4E9C04C9709F40EC142C377
:102DB0008A35910509F4CAC244F48E31910509F4AB
:102DC0001FC18A9709F4F5C135C38B35910509F404
:102DD000C1C28C35910509F02DC397E5292E91E0EC
:102DE000392E2CE8E22E2BE0F22E88E19CE099A708
:102DF00088A738E0C32E3CE0D32E00E010E0E9C203
:102E000080910901882311F40C948D2657E5852EB5
:102E100051E0952E6BEDE62E6BE0F62E08E11CE0FE
:102E200078E0A72E7CE0B72EE6E5CE2EE2E0DE2E9F
:102E3000712CD4018D914D010E9423B9882319F181
:102E40000E94F0B8F6012081211104C020915A029D
:102E5000222341F0D8012D913D914D915C910E942A
:102E600066EB0AC0B3E07B1639F0F50120813181B1
:102E7000428153810E9465EBD7016D937D938D93C1
:102E80009C9313970AC0F80180819181A281B3813C
:102E9000F70180839183A283B3837394F4E0EF0EF0
:102EA000F11C0C5F1F4F24E0A20EB11C3FEFC31AB0
:102EB000D30A44E07412BDCF86E40E946CB9882323
:102EC000C9F00E94F0B820E030E0A9010E94E9ECCE
:102ED000181684F40E94F0B820E030E040E752E495
:102EE0000E94E9EB609323017093240180932501F4
:102EF000909326010E9497530C948D2680E50E94A2
:102F00006CB9882329F00E94ACB86B017C0103C026
:102F1000C12CD12C760183E50E946CB9882361F025
:102F20000E94F0B820E030E04AE754E40E9412E545
:102F30000E9462EC6B017C010E94DA4E8091620279
:102F4000811105C060E085E692E00E94CA8A0E9475
:102F5000FCD0C60ED71EE81EF91E0E94FCD0DC0174
:102F6000CB018C199D09AE09BF09B7FD02C00C94B5
:102F70008D2680E00E943C52F0CF0E942B5C811194
:102F80000C948D2680E090E0A0E2B1E489839A83DE
:102F9000AB83BC838D839E83AF83B88789879A87F1
:102FA000AB87BC8780E50E946CB9882319F00E942A
:102FB000BCB801C060E068A3BE016F5F7F4FCE0167
:102FC00080960E94EFA90C948D268091070C877043
:102FD000873011F00C9492268FE40E946CB98823FC
:102FE00019F00E94E0B803C08FE40E9423B9811158
:102FF0000C948D260C9492260E9411700C948D26B0
:10300000C090180CD090190CE0901A0CF0901B0C8A
:1030100088E50E946CB9811109C020E030E040E2EF
:1030200052E4C701B6010E9465EB02C00E94F0B8ED
:1030300068A379A38AA39BA3C0901C0CD0901D0CFD
:10304000E0901E0CF0901F0C89E50E946CB9811174
:1030500009C020E030E040E251E4C701B6010E941F
:1030600065EB02C00E94F0B89B01AC0169837A83D2
:103070008B839C8368A179A18AA19BA10E94315175
:10308000882311F40C948D2680E00E94A16C0E948C
:103090008D6D85E40E946CB9882321F00E94E0B810
:1030A000182F04C085E40E9423B911E086E50E9430
:1030B0006CB9882321F00E94BCB8262F01C021E002
:1030C000412FBE016F5F7F4FCE0180960E94185E38
:1030D0006B017C019B01AC010E9467ED81115FC017
:1030E00088A099A0AAA0BBA020E030E0A901C5015A
:1030F000B4010E94ACE487FF05C027E137EB41E54E
:1031000058EB04C027E137EB41E558E3C501B401B2
:103110000E9466EBAB01BC0185E992E00E9465D399
:1031200089809A80AB80BC8020E030E0A901C50195
:10313000B4010E94ACE487FF05C027E137EB41E50D
:1031400058EB04C027E137EB41E558E3C501B40172
:103150000E9466EBAB01BC0180E992E00E9465D35E
:1031600020E030E0A901C701B6010E94ACE487FF6E
:1031700005C027E137EB41E558EB04C027E137EB09
:1031800041E558E3C701B6010E9466EBAB01BC0103
:103190008BE892E00E9465D38AE00E9493B90E9476
:1031A000746D113011F40E94E06E0E941F810C9426
:1031B0008D2680910901882311F40C948D2689E4D1
:1031C0000E946CB9082F882321F00E94BCB8E62E1B
:1031D00001C0E12C8AE40E946CB9182F882321F0E9
:1031E0000E94BCB8F62E01C0F12C002319F052E069
:1031F0005E1528F0112389F082E08F1570F4EDE957
:10320000F2E084918F010F5F1F4F882311F40C941B
:103210008D260E9493B9F801F4CF0E947FB9002354
:10322000F1F02091350F3091360F4E2D4203B00151
:10323000439F700D11248091E60E9091E70E680F68
:10324000791F072E000C880B990B0E94B3E4609342
:10325000DB0B7093DC0B8093DD0B9093DE0B112363
:10326000F1F02091370F3091380F5F2D5203B001EC
:10327000539F700D11248091E80E9091E90E680F14
:10328000791F072E000C880B990B0E94B3E4609302
:10329000DF0B7093E00B8093E10B9093E20B80E5E2
:1032A0000E946CB98823E9F00E94E0B88823A9F154
:1032B0000023D9F020E030E040E252E46091DB0BE3
:1032C0007091DC0B8091DD0B9091DE0B0E9466EB20
:1032D0006093DB0B7093DC0B8093DD0B9093DE0B24
:1032E00004C080E50E9423B9E1CF1123B1F020E0B2
:1032F00030E040E251E46091DF0B7091E00B80918F
:10330000E10B9091E20B0E9466EB6093DF0B7093F0
:10331000E00B8093E10B9093E20B86E40E946CB982
:10332000882309F4E7CD0E94F0B86B017C0120E00E
:1033300030E0A9010E94E9EC18160CF0DBCD20E08A
:1033400030E040E752E4C701B601CACD10925A02FC
:103350000C948D2620935A020C948D260E94F0B86E
:103360002B013C01133049F0F6012081318142816B
:1033700053810E9465EB2B013C01A8A5B9A52D91B5
:103380003D914D915C91C301B2010E9465EB4B01EF
:103390005C012DEB37E346E855EB0E94E9EC87FD35
:1033A00020C02DEB37E346E855E3C501B4010E9488
:1033B000ACE41816B4F01F5FB4E0EB0EF11CE8A506
:1033C000F9A53496F9A7E8A7F4E0CF0ED11C143084
:1033D00039F1D1018D911D010E946CB9882359F3F7
:1033E000BDCF133051F44092240C5092250C6092C2
:1033F000260C7092270C01E0DECFA5019401F701A5
:1034000060817181828193810E9466EBD7016D9307
:103410007D938D939C931397812F0E948F74CBCFB4
:10342000002321F084E29CE00E94635B0E941F81E4
:103430000C948D260E943A620C948D268091191668
:1034400090911A168E36910509F4D0C40CF09CC0E8
:103450008032910509F48EC30CF04AC08731910582
:1034600009F416C24CF58231910509F4EDC5BCF49E
:1034700097FF02C00C943C26823091050CF448C1A1
:10348000419711F00C943C2660E08FEC92E00E9492
:10349000CA8A5E985E9815985E980C948D26853140
:1034A000910509F4EBC10CF0EDC1449711F00C94B7
:1034B0003C26E7EEF2E0A4C18B31910509F443C24A
:1034C0003CF48931910509F422C20CF4F7C12DC2F4
:1034D0008D31910511F40C948D260CF4AFC28E3110
:1034E000910509F4B5C24F9709F490C30C943C269A
:1034F0008335910509F4A5C524F58C34910509F4AB
:103500004CC484F48934910509F436C48B34910594
:1035100009F43FC4C09711F00C943C260E94E98145
:103520000C948D268135910509F474C50CF086C57F
:103530008D34910511F00C943C260E94F3360C94C6
:103540008D268936910509F468C474F48C3591058B
:1035500009F4ADC58836910509F423C48435910575
:1035600011F00C943C2670C58B36910509F4C4C447
:103570000CF4A6C48C36910509F449C48D36910526
:1035800009F466C40C943C26823231E0930711F4AE
:103590000C94D2230CF050C08C38910509F46CC403
:1035A00014F58537910509F453C68CF482379105DB
:1035B00009F406C68337910509F4A7C08037910541
:1035C00011F00C943C2688EA93E00E94CE51873794
:1035D000910509F499C60CF44AC68D37910509F492
:1035E0009BC40C943C268C3C910509F4CCC674F425
:1035F000893C910509F48BC68B3C910509F4A7C65B
:103600008E3B910511F00C943C264CC48C3D9105E9
:1036100009F4ADC734F48D3C910509F429C70C9425
:103620003C268D3D910509F4AFC78831914011F4D6
:103630000C9427230C943C26843FA1E09A0711F4B4
:103640000C948D2574F58039E1E09E0711F40C94FB
:10365000982494F48F3221E0920711F40C947F2483
:10366000833631E0930709F44CC08D32914011F05C
:103670000C943C260C94DF23823951E0950711F419
:103680000C94A12414F40C949B248A39B1E09B0778
:1036900009F4C0C3843A914011F40C94A9240C9409
:1036A0003C26883FF1E09F0711F40C949F256CF4B1
:1036B000863F31E0930711F40C94902514F00C949C
:1036C00093250E94F3AF0C948D26833553E0950724
:1036D00011F40C94C2254CF48835924011F00C94EE
:1036E0003C260E94F9840C948D26803AE3E09E07E4
:1036F00009F47FC2873E934011F40C9427260C9462
:103700003C26E1ECF6E00C948524ECE0F4E095C571
:10371000A0901716B090181680E50E946CB9882307
:1037200059F00E94ACB86B017C0111E0672B682B4B
:10373000692B31F410E004C010E0C12CD12C7601CB
:1037400083E50E946CB9882311F40C9461280E94CF
:10375000F0B820E030E04AE754E40E9412E50E940D
:1037600062EC6B017C0111110BC0672B682B692B7C
:1037700039F4A114B10421F0D5018C91811102C05A
:1037800010E001C011E00E94DA4E112329F061E03F
:10379000C5010E94048B05C060E08CEB92E00E94A2
:1037A000CA8A83E08093DA0B81E08093D90BC1143D
:1037B000D104E104F104B1F00E94FCD0C60ED71E82
:1037C000E81EF91E0E94FCD0DC01CB018C199D097A
:1037D000AE09BF09B7FF0EC08091D90B81110C94BF
:1037E000662808C08091D90B882321F080E00E94D0
:1037F0003C52F8CF0E9444C41092D90B0C948D26F1
:1038000084918F010F5F1F4F882321F00E9493B98D
:10381000F801F6CF10928A058DE393E00E9464B21E
:103820008BE1EDE3F3E0DE01159601900D928A95B0
:10383000E1F780913B0390913C039C838B838FE560
:1038400091E09A83898340E050E0BE016F5F7F4F33
:1038500080E090E00E94F42ECE0101960E94B251C9
:10386000E8EDF2E084918F010F5F1F4F882311F480
:103870000C948D260E9493B9F801F4CF0E94BD5C90
:103880000C948D2610920C0310920D030C948D262F
:10389000E0911716F09118168081882329F0803264
:1038A00009F410823196F8CF40E061E0809117165C
:1038B000909118160E94B9310C948D2680E090E00A
:1038C000A8E4B2E489839A83AB83BC8318A219A2CB
:1038D0001AA21BA21CA21DA21EA21FA280916102FD
:1038E000882351F0AE014F5F5F4FBE01605E7F4F96
:1038F000CE0184960E94B66080910D03882319F052
:1039000081E080930C030E94BA360C948D261092AD
:103910000C030E94DE3688EF92E09093CD0B8093EB
:10392000CC0B0E9405B80C948D2680910D03882342
:1039300011F40C948D2683E50E946CB981110C94CE
:103940006B280C948D2683E40E9423B98823A1F16F
:10395000EAE2F3E084918F010F5F1F4F882321F08B
:103960000E9493B9F801F6CF8091D804811103C069
:10397000EDEFF2E012C0BE016F5F7F4F85ED94E086
:103980000E942BB18E010F5F1F4FF80181918F01B3
:10399000882369F00E9493B9F8CF84918F010F5F5B
:1039A0001F4F882321F00E9493B9F801F6CF8AE0D7
:1039B0000E9493B90C948D2680910D03882339F0D1
:1039C00080910C03882319F0E7E0F3E003C0E9E1FC
:1039D000F3E028C084918F010F5F1F4F882321F0EF
:1039E0000E9493B9F801F6CF609186057091870522
:1039F00080918805909189054AE00E9442BC8FE23F
:103A00000E9493B96091820570918305809184052D
:103A1000909185054AE00E9442BC8AE00E9493B9D9
:103A20000C948D2684918F010F5F1F4F882311F412
:103A30000C948D260E9493B9F801F4CF40E060E029
:103A400080911716909118160E94B9310C948D260A
:103A500080910D03882311F40C948D2685ED94E05C
:103A60000E94AACC85ED94E00E9406B110920B034F
:103A700010920A0380910D03882311F40C948D2673
:103A800000911716109118160E94B32EB801CE019E
:103A900080960E94FD308C01892B11F40C948D26A8
:103AA00068A179A16115710511F06C5F7F4F1982D2
:103AB0001C8222E0A801CE0101960E94B5B68111B8
:103AC00002C0F12C14C0CE0101960E94212E882341
:103AD000C1F361E0CE0101960E940FB1009789F316
:103AE00025EEDC012C931C820E944FCAF82ECE01D9
:103AF00001960E9479B9F11003C0E7E4F3E022C017
:103B0000E9E3F3E084917F01BFEFEB1AFB0A88231E
:103B100021F00E9493B9F701F5CFF80181918F014F
:103B2000882319F00E9493B9F8CF8AE00E9493B9D4
:103B300010928605109287051092880510928905CB
:103B40000C948D2684917F012FEFE21AF20A8823CC
:103B500021F00E9493B9F701F5CFD8018D918D0125
:103B6000882319F00E9493B9F8CF8EE20E9493B98E
:103B70000C948D2680910C0381110E94DA4E809165
:103B80000D03882311F40C948D2680E50E946CB9F6
:103B9000882319F00E94E0B803C080E50E9423B991
:103BA000182F482F61E080911716909118160E94E7
:103BB000B93183E50E946CB9882381F00E94BCB8BA
:103BC000AB01BC014093860550938705609388053F
:103BD0007093890585ED94E00E941CB080910D03DF
:103BE000882319F081E080930C0311110C948D2629
:103BF0008ACE809117169091181621E020930B031E
:103C000040E060E00E94B9310C948D260E946B3632
:103C10007B018C0120E831E541E050E00E9402EB9D
:103C2000C9016DE671E00E947FED4B015C01C801A6
:103C3000B70120E13EE040E050E00E9402EBCA0103
:103C4000B90128E130E040E050E00E9402EB762E1E
:103C5000672EC62ED72E8CE3282E312C412C512CCA
:103C6000C801B701A20191010E9402EBF62EE72ED6
:103C7000CA01B901A20191010E9402EBCB018E01A0
:103C80000F5F1F4F8114910499F0EF92FF927F9381
:103C90006F936F927F92BF92AF929F928F9287E8BD
:103CA00093E09F938F931F930F930E9444E413C05C
:103CB000A114B104B1F0EF92FF927F936F936F92D2
:103CC0007F92BF92AF9287E793E09F938F931F936A
:103CD0000F930E9444E40FB6F894DEBF0FBECDBF31
:103CE00030C0CD2879F0EF92FF927F936F936F925F
:103CF0007F928BE693E09F938F931F930F930E9485
:103D000044E4E9CF892B69F0EF92FF927F936F93A0
:103D100083E693E09F938F931F930F930E9444E455
:103D2000DACFEF92FF928FE593E09F938F931F93EB
:103D30000F930E9444E40F900F900F900F900F90FC
:103D40000F9060E0C8010E94048BE0EFF6E08491E0
:103D50007F019FEFE91AF90A882321F00E9493B9A5
:103D6000F701F5CFB8018BE993E00E949BD38AE07D
:103D70000E9493B90C948D2680910C0381110C94B0
:103D80008D2680E50E9423B981110C947C280C9427
:103D90008D260E94BA360C948D260E94DE360C9435
:103DA0008D2688E690E00E94CF7481110C948D26B8
:103DB00083E50E946CB9882311F40C948D260E942F
:103DC000F0B80E945BECCB010E94658A0E94F0B8BB
:103DD00020E030E04AEA52E40E94ACE418160CF409
:103DE0009CC70E94F3360E9444C497C78EE40E9489
:103DF0006CB9882309F491C70E94BCB860935D0236
:103E000070935E0280935F029093600286C7109267
:103E10001E0183C70E94A77C80C789E690E00E94AC
:103E2000CF74811111C0E1EBF3E084918F010F5F3A
:103E30001F4F882321F00E9493B9F801F6CF0E940A
:103E400059658AE00E9493B91092DA0B0C94A22C67
:103E50008DE690E00E94CF7481115FC783E50E94D8
:103E60006CB988AB81110C94872882E50E946CB9EB
:103E700081110C94872851C783E50E946CB988236F
:103E800009F44BC70E94F0B80E945BEC63377105E0
:103E900014F063E770E07093EE0F6093ED0F0E94F3
:103EA0009E683BC783E50E946CB98AAF81110C9470
:103EB0007E2A82E50E946CB981110C947E2A2DC75E
:103EC00080E50E946CB9811106C083E50E946CB93F
:103ED000882359F005C00E94CCB881111EC7F5CFC8
:103EE0000E94BCB86F3F710510F06FEF70E07093E7
:103EF000F00F6093EF0F11C780E50E946CB981113C
:103F000005C01092F00F1092EF0F07C70E94BCB8C7
:103F1000672B09F002C7F5CF8CE40E9423B98823F0
:103F200081F00E94F0B86B017C0120E030E0A90133
:103F30000E94E9EC87FF0AC0F7FAF094F7F8F094D2
:103F400005C0C12CD12CE12CB0E4FB2EF7FAF09483
:103F5000F7F8F094CCA2DDA2EEA2FFA280E090E000
:103F6000A0E2B1E489839A83AB83BC838D839E8373
:103F7000AF83B88789879A87AB87BC8788E50E941B
:103F80006CB9882379F088E50E946CB9882319F010
:103F90000E94F0B803C060E070E0CB0169837A83CF
:103FA0008B839C8389E50E946CB9882379F089E52D
:103FB0000E946CB9882319F00E94F0B803C060E039
:103FC00070E0CB016D837E838F8398878AE50E94A2
:103FD0006CB9882379F08AE50E946CB9882319F0BE
:103FE0000E94F0B803C060E070E0CB0169877A8777
:103FF0008B879C8718A219A21AA21BA220E0AE01EF
:10400000405E5F4FBE016F5F7F4FCE0184960E947E
:10401000CA8383C60E94EA680E94184F1092F00F6C
:104020001092EF0F68EE73E080E090E00E94FA8952
:1040300060E084EF93E00E94CA8A6FC61092590232
:104040006CC62093590269C683E50E946CB9882327
:1040500099F00E94F0B820E030E04AE754E40E9472
:1040600012E50E9462EC60931A0170931B01809329
:104070001C0190931D0151C688E50E9423B981114E
:104080000C94A92B89E50E9423B981110C94A92BCA
:104090008AE50E9423B981110C94A92B85E40E9422
:1040A00023B981110C94A92B0E94184F36C6F7E54D
:1040B000CF2EF1E0DF2EA5E4EA2EAEE0FA2E10E0DE
:1040C000F60181916F010E9423B9882309F46EC023
:1040D000133009F063C00E94F0B84B015C0120E08E
:1040E00030E040EA51E40E94ACE487FF4EC0A501F5
:1040F00094016091510E7091520E8091530E9091E7
:10410000540E0E94E9EB2B013C019B01AC01609134
:10411000470B7091480B8091490B90914A0B0E947C
:1041200012E56093470B7093480B8093490B909373
:104130004A0BA301920160915F0B7091600B80911B
:10414000610B9091620B0E9412E560935F0B70937C
:10415000600B8093610B9093620B609114117091CE
:10416000151180911611909117110E94B1E4A301CD
:1041700092010E9412E50E9462EC60931411709308
:10418000151180931611909317118092510E9092F1
:10419000520EA092530EB092540E08C00E94F0B876
:1041A000D7016D937D938D939C9313971F5FB4E01C
:1041B000EB0EF11C143009F083CF0E94EBD4ADC597
:1041C0000E94DA4E83E50E946CB9882309F42EC957
:1041D0000E94BCB86230710509F028C90E94D4570A
:1041E0008BE50E9493B960917C0B70917D0B80915F
:1041F0007E0B90917F0B42E00E94CBBC4091800BE4
:104200005091810B6091820B7091830B89E094E057
:104210000E9465D34091840B5091850B6091860B71
:104220007091870B86E094E00E9465D38DE50E9433
:1042300093B98AE00E9493B970C584918F010F5F92
:104240001F4F882309F469C50E9493B9F801F5CF7F
:104250008091171690911816FC012081222321F0DD
:1042600060E00E94048B59C50E9444C456C5009169
:1042700017161091181683E0D12C40E08150E9F018
:10428000D8019C91292F2B7F2134C1F711962C91B5
:104290002133A1F7913421F0953421F441E002C09B
:1042A000DD24D39498012E5F3F4F89012F5F3F4F4C
:1042B000F80190819032C9F3E1CF442369F0E0EF37
:1042C000F6E084917F012FEFE21AF20A882321F0B1
:1042D0000E9493B9F701F5CFDD2069F0E7E8F4E03B
:1042E00084917F013FEFE31AF30A882321F00E94B3
:1042F00093B9F701F5CFD8018D918D01882309F489
:1043000056CB0E9493B9F7CF0E9402AB06C5E7E5F2
:10431000EE2EE1E0FE2E08E111E1F70181917F012F
:104320000E9423B9882351F00E94F0B80E9462ECE9
:10433000D8016D937D938D939C9313970C5F1F4FC2
:10434000B1E108321B0749F70E94B6D3E6C477E50E
:10435000E72E71E0F72E03E51BE0F70181917F0165
:104360000E9423B9882341F00E94F0B8D8016D93D0
:104370007D938D939C9313970C5F1F4FBBE0033687
:104380001B0759F7CAC483E50E946CB98823A1F0C2
:104390000E94F0B860934F0B7093500B8093510BB9
:1043A0009093520B60934B0B70934C0B80934D0B7F
:1043B00090934E0B10E001C011E080E50E946CB9B3
:1043C000882359F00E94F0B860934F0B7093500B04
:1043D0008093510B9093520B10E082E50E946CB9D0
:1043E000882359F00E94F0B86093D50B7093D60BD8
:1043F0008093D70B9093D80B10E084E50E946CB9A2
:10440000882359F00E94F0B860934B0B70934C0BCB
:1044100080934D0B90934E0B80C4112309F47DC4FF
:1044200040914F0B5091500B6091510B7091520B7A
:1044300081E994E00E9465D34091D50B5091D60B51
:104440006091D70B7091D80B8EE894E00E9465D3F1
:1044500040914B0B50914C0B60914D0B70914E0B5A
:104460008BE894E00E9465D38AE00E9493B955C41A
:1044700081E50E9423B9882351F00E94ACB8609373
:10448000630B7093640B8093650B9093660B83E5CD
:104490000E9423B9882351F00E94F0B860936B0BFF
:1044A00070936C0B80936D0B90936E0B84E50E9460
:1044B00023B9882351F00E94F0B86093670B709382
:1044C000680B8093690B90936A0B88E50E9423B96F
:1044D000882351F00E94F0B860933B0B70933C0B23
:1044E00080933D0B90933E0B89E50E9423B988236E
:1044F00051F00E94F0B860933F0B7093400B809393
:10450000410B9093420B8AE50E9423B98823F1F076
:104510000E94F0B86093430B7093440B8093450B5B
:104520009093460B2DEC3CEC4CEC5DE30E94ACE42C
:10453000181664F0E1EAF4E084918F010F5F1F4FD9
:10454000882321F00E9493B9F801F6CF85E40E94F8
:1045500023B9882309F4E1C30E94F0B86093470BA4
:104560007093480B8093490B90934A0BD6C383E515
:104570000E946CB9882309F4D0C30E94BCB8709320
:10458000360160933501C9C38DED90E00E94CF7470
:104590008111C3C383E50E946CB9811103C0E0EFB0
:1045A000F6E02FC00091660E10E00E94BCB8000F2C
:1045B000111FF801ED5CFE4F718360838091660EE0
:1045C00090E08C01000F111F000F111F015D1E4FA5
:1045D000880F991FFC01ED5CFE4F60817181072EF1
:1045E000000C880B990B0E94B3E42AE037ED43E2FC
:1045F0005CE30E9412E5F8016083718382839383F8
:104600008CC384918F010F5F1F4F882321F00E947C
:1046100093B9F801F6CF85E40E9493B98091660EB4
:10462000805D0E9493B9E091660EF0E0EE0FFF1FEF
:10463000ED5CFE4F6081718183ED94E00E9482D336
:1046400085E20E9493B98AE00E9493B966C380E52F
:104650000E9423B9882309F460C30E94BCB86B018F
:104660007C018B01672B19F0E1ECF6E07FC083E55C
:104670000E9423B9811103C0E0EFF6E007C00E9459
:10468000BCB887E093E00E94D5D147C384917F01F5
:104690002FEFE21AF20A882321F00E9493B9F70162
:1046A000F5CF60E070E084EF94E00E9482D38091C7
:1046B000090328E532E06901C81AD10887FDD394BF
:1046C000CC0CDD1CCC0CDD1C0D2C000CEE08FF0806
:1046D0008091080328E830E04901881A910887FD95
:1046E0009394880C991C880C991C092C000CAA081E
:1046F000BB08809107038F3FB9F090E0FC01EE0FFB
:10470000FF1F8E0F9F1FFC01EE51FD4F0181128193
:10471000B3E0000F111FBA95E1F784E016950795F5
:104720008A95E1F70E5F1F4F98012F5F3F4FC90138
:10473000330FAA0BBB0B9C01AD01281939094A099B
:104740005B09A4EBB0E00E9443EBA7019601281996
:1047500039094A095B090E9424EBB90181EF94E011
:104760000E9482D38AE00E9493B9D7C284918F01BC
:104770000F5F1F4F882321F00E9493B9F801F6CFF5
:10478000B6018AEE94E00E9482D3EBEDF4E08491CE
:104790008F010F5F1F4F882309F4BFC20E9493B996
:1047A000F801F5CF8AE50E946CB981110C94CE2BEB
:1047B00083E50E946CB981110C94CE2BAEC285E4C6
:1047C0000E946CB9811110C080E50E9423B9882332
:1047D00091F00E94F0B860938D0E70938E0E8093CE
:1047E0008F0E9093900E07C00E94CCB8882361F37F
:1047F000E1ECF6E071C089E40E9423B9882381F0DE
:104800000E94F0B82CEA35EC47E25EE30E9412E524
:104810006093950E7093960E8093970E9093980EDA
:1048200084E40E9423B9882381F00E94F0B82CEA26
:1048300035EC47E25EE30E94E9EB6093910E7093E2
:10484000920E8093930E9093940EE0EFF6E0849195
:104850008F010F5F1F4F882321F00E9493B9F80149
:10486000F6CF40918D0E50918E0E60918F0E70910B
:10487000900E85E195E00E9465D32CEA35EC47E285
:104880005EE36091950E7091960E8091970E9091D7
:10489000980E0E94E9EBAB01BC0181E195E00E941A
:1048A00065D32CEA35EC47E25EE36091910E70919E
:1048B000920E8091930E9091940E0E9412E5AB019E
:1048C000BC018DE095E00E9465D38AE00E9493B917
:1048D00024C20E9493B9F80184918F010F5F1F4F8A
:1048E0008111F7CFE9E1F5E084918F010F5F1F4F50
:1048F000882309F412C20E9493B9F801F5CF0E94EF
:10490000E47C0BC20E9493B9F80184918F010F5F80
:104910001F4F8111F7CFEBE2F5E084918F010F5F1C
:104920001F4F882309F4F9C10E9493B9F801F5CF0C
:104930000E94DA4EF2C181E00E94726F0E941F81D4
:10494000ECC180E00E94726F0E94E06E0E941F81A5
:10495000E4C183E50E9423B9882349F00E94E0B8AE
:10496000182F811106C080E00E94A16C02C0109136
:104970003A0B8091180C9091190CA0911A0CB091DF
:104980001B0C89839A83AB83BC8380911C0C909110
:104990001D0CA0911E0CB0911F0C8D839E83AF83C4
:1049A000B8878091200C9091210CA091220CB0919D
:1049B000230C89879A87AB87BC878091350F9091AC
:1049C000360F892B09F464C783E40E9423B9882336
:1049D00009F45EC70E94F0B81B012C0103E0612CB2
:1049E000712C48EC48A752EC5CA718AA812C88ECE3
:1049F00089AB92E49DAB0150C8F163E0F62E802FA5
:104A000090E06C01CC0CDD1CC80ED91EFA94F601A6
:104A1000EF0DF11DEE0FFF1FEE0FFF1FE75CF04FD4
:104A20009080A180B280E38028A9382D49A95DA992
:104A3000692D7A2D8B2D9E2D0E94ACE487FF04C03A
:104A400098AA8A2CB9AAEDAA292D3A2D4B2D5E2DB4
:104A5000B30188A59CA50E94ACE487FF04C0692C23
:104A60007A2CB8A6ECA6F110D1CFC5CF930148A5FA
:104A70005CA568A9782D89A99DA90E9466EB20E014
:104A800030E040E05FE30E9412E5A20191010E9444
:104A900066EB2B013C012DEB37E346E855EB0E941A
:104AA000E9EC87FD0BC02DEB37E346E855E3C30186
:104AB000B2010E94ACE418160CF0EAC680E00E9435
:104AC000A16C43E0B42EBA943FEFB31609F4E0C6EC
:104AD00003E08B2D90E06C01CC0CDD1CC80ED91EC0
:104AE000015088F37601E00EF11CC701880F991F71
:104AF000880F991FAC01475C504F7A01A3019201C6
:104B0000D7016D917D918D919C910E9465EBF7018C
:104B10006083718382839383E3CF0E949E9BFDC059
:104B20000E94D4AEFAC083E50E9423B9882321F005
:104B30000E94E0B891E089270E9459ABEEC0209313
:104B40002C0F0E94C89510922C0F882309F4E5C001
:104B5000E0EFF6E084918F010F5F1F4F811103C0DA
:104B6000E7E6F5E004C00E9493B9F801F3CF849121
:104B70008F010F5F1F4F882309F4CFC00E9493B9A4
:104B8000F801F5CF8AE50E946CB9811103C0E0EF0E
:104B9000F6E03BC00E94F0B86B017C0120E030E001
:104BA00040EA50EC0E94E9EC87FD0AC020E030E0CA
:104BB00040E85FE3C701B6010E94ACE418161CF49C
:104BC000E1ECF6E00CC0C092140CD092150CE0920F
:104BD000160CF092170CA1C00E9493B9F8018491B1
:104BE0008F010F5F1F4F8111F7CFE2E7F5E084914E
:104BF0008F010F5F1F4F882309F48FC00E9493B964
:104C0000F801F5CF0E9493B9F80184918F010F5FED
:104C10001F4F8111F7CFE0E9F5E084918F010F5F1D
:104C20001F4F882321F00E9493B9F801F6CF4091DD
:104C3000140C5091150C6091160C7091170C8DE8A6
:104C400095E00E9465D38AE00E9493B966C081E036
:104C5000809309011092340E83E50E946CB9882379
:104C600039F00E94E0B8811158C00E945ED555C04D
:104C700083E50E9423B9F7CF0E943A624EC0F090BC
:104C800019160E94DA4E10913A0B80E00E94A16C36
:104C9000FF2029F1E0EFF6E084918F010F5F1F4FB5
:104CA000882321F00E9493B9F801F6CF84E50E9491
:104CB00093B96F2D70E080E090E04AE00E9442BC22
:104CC00080E20E9493B9E1EBF5E084918F010F5FE0
:104CD0001F4F882311F10E9493B9F801F6CF10926B
:104CE000000C812F0E94A16CE0EFF6E084918F010F
:104CF0000F5F1F4F882321F00E9493B9F801F6CF70
:104D00006091000C70E08FE995E00E9482D38AE008
:104D10000E9493B902C00E943A621092DA0B0E947C
:104D2000EB5910C60E94DA4E80E00E94A16C84EF1D
:104D300091E0A0E0B0E089839A83AB83BC83BE019D
:104D40006F5F7F4F80EA0E941F6D0E943E6D0E9440
:104D50008D6D11E01093170688E50E9423B9382E57
:104D600089E50E9423B9282E8AE50E9423B988ABE1
:104D7000311005C0211005C058A9152705C0211004
:104D800002C010E001C018A90E947FB982E50E940C
:104D90006CB9882361F00E94F0B86B017C0120E0BF
:104DA00030E0A9010E94ACE4882379F106C0C12C4F
:104DB000D12C40E2E42E41E4F42E111105C0311053
:104DC00003C0222009F40CC1C092E30BD092E40B83
:104DD000E092E50BF092E60BA70196016091200CA2
:104DE0007091210C8091220C9091230C0E94ACE4D4
:104DF00087FF0BC019821A821B821C82BE016F5F63
:104E00007F4F83EE9BE00E94C16E11110DC03110E7
:104E100003C02110E0C0E4C0211006C080E00E9461
:104E2000C44F1123B1F3D7C010921C0C10921D0C6B
:104E300010921E0C10921F0C1092180C1092190C4C
:104E400010921A0C10921B0C0E9465B8EDE5F2E16D
:104E5000849189AFE1E5F2E1C590D590E590F490B9
:104E6000E5E5F2E185909590A590B490A7019601B3
:104E7000C501B4010E94ACE487FF05C0A7019601FB
:104E8000C501B40104C0A5019401C701B6010E9487
:104E9000E9EB2B013C01E4E1F2E1259135914591EB
:104EA000549128A739A74AA75BA7E0E1F2E18591D1
:104EB0009591A591B4918CA79DA7AEA7BFA79C0182
:104EC000AD0168A579A58AA59BA50E94E9EC1816F5
:104ED00044F49CA599ABADA5ADAB0EA5BFA5B8A7F5
:104EE00007C0E8A5E9ABF9A5FDAB0AA52BA528A746
:104EF000A3019201C301B2010E9412E520E030E05B
:104F000040E85FE30E9466EB0E9427ED29A93DA9D6
:104F1000402F58A50E9412E56CA37DA38EA39FA3EA
:104F2000EEE5F2E1049120E030E040EC5FE3C50102
:104F3000B4010E9412E54B015C01602F000F770B5A
:104F4000880B990B0E94B3E49B01AC01C501B4012D
:104F50000E9412E569837A838B839C8320E030E092
:104F600040EC5FE3C701B6010E9412E56B017C01D2
:104F700039AD632F330F770B880B990B0E94B3E485
:104F80009B01AC01C701B6010E9412E568A379A399
:104F90008AA39BA3AE014C5D5F4FBE016F5F7F4F45
:104FA000CE0180960E949F6E0E944EAB10921C0C08
:104FB00010921D0C10921E0C10921F0C1092180CC7
:104FC0001092190C10921A0C10921B0C111126CF72
:104FD000311024CF1ECF81E00E94C44F111104C0B4
:104FE00048A9442309F45FC08091070C8370833083
:104FF000F1F060E08DE792E00E94CA8AE0EFF6E00F
:1050000084918F010F5F1F4F811103C0EEE6F2E024
:1050100004C00E9493B9F801F3CF84918F010F5F10
:105020001F4F8823F1F10E9493B9F801F6CF0E9437
:1050300065B88091200C9091210CA091220CB09128
:10504000230C8093E30B9093E40BA093E50BB093B8
:10505000E60B80E090E0ADE1B3E48093DB0B90934E
:10506000DC0BA093DD0BB093DE0B80E090E0AEEFA5
:10507000B2E48093DF0B9093E00BA093E10BB0932D
:10508000E20B19821A821B821C82AE014F5F5F4FB6
:105090006FED7BE08BED9BE00E949F6E82E00E94B3
:1050A000C44F0E94E06E0E9465B8809116068093FE
:1050B00017060E94746D83E0809327010E941F8170
:1050C0002CCE11110C94C01B0C94B91B80E00E94D3
:1050D0003C520C94E21B0E94BCB8AB01BC01409353
:1050E000860550938705609388057093890585ED43
:1050F00094E00E941CB011CE0E94CCB8853620F0FE
:1051000084E68093F10E09CE8093F10E06CE0E94C4
:10511000F0B80E945BECCB010E94658A0E94F0B857
:1051200020E030E04AEA52E40E94ACE418162CF089
:105130000E94F3360E9444C402C00E94BA366091B5
:10514000010C7091020C072E000C880B990B0E9429
:10515000B3E46B017C018090FC0B9090FD0BA09060
:10516000FE0BB090FF0BA50194010E94E9EC18160C
:105170005CF0A8A9A11110C0A5019401C701B60156
:105180000E94E9EC18161CF485EC93E002C088EB51
:1051900093E060E00E94CA8A81E080931E01109231
:1051A000DA0B1DAA1EAA1FAA18AE1BAE1CAE1DAE9E
:1051B0001EAE19AA1FAEFCE32196FFAF21972CE18A
:1051C00022962FAF229736E423963FAF2397C12C28
:1051D000D12C80E8E82E9FEBF92E412C512C320186
:1051E0006091010C7091020C072E000C880B990B3A
:1051F0000E94B3E4162F072F88A79CA79601A7014A
:105200000E94ACE48823E1F02091FC0B3091FD0B6F
:105210004091FE0B5091FF0BB8A9612F702F88A50C
:105220009CA5B11107C00E94ACE4881F8827881F85
:1052300089AB0AC00E94ACE487FD58C119AA04C01A
:105240001C2D0D2DE8A6FCA60E94FCD06B017C0154
:10525000DC01CB012BAD3CAD4DAD5EAD821B930BA4
:10526000A40BB50BB7FD3BC0D701C60188519C4FBD
:10527000AF4FBF4F8BAF9CAFADAFBEAF0E94596574
:10528000E4EBF3E084915F019FEFA91AB90A882348
:1052900021F00E9493B9F501F5CF41145104610446
:1052A0007104B9F0D301C20188579C4EAF4FBF4F74
:1052B000BC01CD016C197D098E099F0928EE33E0F0
:1052C00040E050E00E9402EBCA01B9010E94AFBC6D
:1052D00003C08FE30E9493B98AE00E9493B980E0F3
:1052E0000E943C520E94FCD06093880B7093890B03
:1052F00080938A0B90938B0B2090FC0B3090FD0BCE
:10530000A091FE0BA9AFB091FF0BBAAF9101AD0117
:10531000612F702F88A59CA50E9465EB4B015C0155
:1053200020E030E0A9010E94E9EC87FF04C0B7FA51
:10533000B094B7F8B094411451046104710459F465
:1053400020E030E040E85FE3C501B4010E94ACE436
:1053500087FF0DC00AC020E030E040E450E4C50102
:10536000B4010E94E9EC181614F426013701E9A9EA
:10537000EE23F1F12DA93EA94FA958AD2115310514
:105380004105510541F0D701C601821B930BA40BC7
:10539000B50BB7FD2DC0910149AD5AAD6FAD21964A
:1053A0007FAD219722968FAD229723969FAD2397AD
:1053B0000E9465EB20E030E040EC5FE30E94ACE44B
:1053C00087FD94C0D701C601805A9541AF4FBF4FAA
:1053D0008DAB9EABAFABB8AF2FAE21963FAE219752
:1053E00099AD22969FAF2297AAAD2396AFAF239790
:1053F00080911E01882309F479C04114510461048D
:10540000710429F4C12ED02EE8A4FCA4E9CEB8E89A
:10541000CB1AB3E1DB0AE108F108C418D508E608A5
:10542000F708F7FE63C0EECF411451046104710424
:1054300009F424C1D301C20188579C4EAF4FBF4F1E
:10544000BC01CD016C197D098E099F0928EE33E05E
:1054500040E050E00E9402EBCA01B9010E94AFBCDB
:105460008AE00E9493B980E00E943C520E94FCD0E6
:105470006093880B7093890B80938A0B90938B0BAE
:105480002090EC0E3090ED0EA091EE0EADABB091F1
:10549000EF0EB9AF9101AD01612F702F88A59CA5CA
:1054A0000E9465EB4B015C0120E030E0A9010E9405
:1054B000E9EC87FF04C0B7FAB094B7F8B094411490
:1054C00051046104710409F0DDC020E030E040E8DF
:1054D0005FE3C501B4010E94ACE487FDDEC0E8A92A
:1054E000E111DEC080911E01811119C180911E0160
:1054F000882309F412CC0E9444C40FCC0E94F0B857
:105500000E945BEC633771050CF020C17093EE0FC5
:105510006093ED0F0E949E680E94F0B820E030E09A
:1055200040EA50E40E94E9EC181614F40E94BA36DE
:105530006091ED0F7091EE0F072E000C880B990B08
:105540000E94B3E42091EC0E3091ED0E4091EE0EEE
:105550005091EF0E0E94E9EC18161CF485EE93E0D2
:1055600002C086ED93E060E00E94CA8A81E08093E9
:105570001E011092DA0B8091000C8093660E19AA1E
:105580001AAA1BAA1CAA1BAE1CAE1DAE1EAE18AAE0
:105590001FAEECE32196EFAF2197FCE12296FFAF1F
:1055A000229726E423962FAF2397C12CD12C10E805
:1055B000E12E0FEBF02E412C512C32016091ED0FBA
:1055C0007091EE0F072E000C880B990B0E94B3E42C
:1055D000162F072F88A79CA79601A7010E94ACE46D
:1055E0008823F1F02091EC0E3091ED0E4091EE0EFB
:1055F0005091EF0E8AAD612F702F811109C088A5DF
:105600009CA50E94ACE4881F8827881F88AB0CC02B
:1056100088A59CA50E94ACE487FD68CF18AA04C0A9
:105620001C2D0D2DE8A6FCA60E94FCD06B017C0170
:10563000DC01CB012BAD3CAD4DAD5EAD821B930BC0
:10564000A40BB50BB7FD0FCFD701C60188519C4FF6
:10565000AF4FBF4F8BAF9CAFADAFBEAF0E94596590
:10566000E2EDF3E084915F019FEFA91AB90A882364
:1056700009F4DACE0E9493B9F501F4CF8FE30E94CA
:1056800093B9EECE20E030E040E450E4C501B4012F
:105690000E94E9EC18160CF022CF260137011FCF2B
:1056A00029A93AA94BA95CA9211531054105510544
:1056B00041F0D701C601821B930BA40BB50BB7FDBC
:1056C00011CF91014DA959AD6FAD21967FAD2197B5
:1056D00022968FAD229723969FAD23970E9465EB6C
:1056E00020E030E040EC5FE30E94ACE487FDFECEBA
:1056F000D701C601805A9541AF4FBF4F89AB9AABD6
:10570000ABABBCAB2FAE21963FAE21979DA92296A5
:105710009FAF2297A9AD2396AFAF2397E3CE411455
:1057200051046104710429F4C12ED02EE8A4FCA414
:1057300045CFB8E8CB1AB3E1DB0AE108F108C41899
:10574000D508E608F708F7FED1CEEECF63E770E0A4
:10575000DDCE0E94DA4E88E50E9423B9882331F01D
:105760005E9A8091070C8E7F8093070C89E50E94DA
:1057700023B9882331F05E9A8091070C8D7F809346
:10578000070C8AE50E9423B9882309F4C6CA159A32
:105790008091070C8B7F8093070CBFCA0E94F0B8E2
:1057A00020E030E040E050EC0E94ACE487FD15C002
:1057B0000E94F0B820E030E040E050E40E94E9ECC4
:1057C00018162CF00E94F0B86B017C010BC0C12CA4
:1057D000D12CE12CF0E4FF2E05C0C12CD12CE12C02
:1057E000E0ECFE2E8091070C82FF18C00091C30FE1
:1057F0001091C40F20914D0E30914E0E40914F0EDE
:105800005091500EC701B6010E9412E50E945BEC58
:10581000600F711F7093C40F6093C30F80E50E94E7
:1058200023B9882329F00E94E0B8882309F475CAB7
:10583000A70196016091140C7091150C8091160CC3
:105840009091170C0E9466EB6093140C7093150CEA
:105850008093160C9093170CE0EFF6E084918F0183
:105860000F5F1F4F882321F00E9493B9F801F6CFF4
:105870004091140C5091150C6091160C7091170CFE
:105880008CEF94E00E9465D38AE00E9493B945CAE8
:1058900086E50E9423B9882341F08091350F9091CD
:1058A000360F892B11F00E940F6C812F0E94A16C82
:1058B000111103C0E0EFF6E01DC080913A0B811199
:1058C000F9CFE1ECF6E084918F010F5F1F4F81115A
:1058D00003C0E8E4F5E004C00E9493B9F801F3CFF7
:1058E00084918F010F5F1F4F882321F30E9493B98A
:1058F000F801F6CF84918F010F5F1F4F882321F0AD
:105900000E9493B9F801F6CF80913A0B882319F0E1
:105910006BE172E002C06FE172E08AE395E00E9401
:105920009BD38AE00E9493B94CE050E068E17CE0B0
:10593000CE0101960E94BDED892B09F4EEC90E94AB
:105940001F81EBC9CE5BDF4F0FB6F894DEBF0FBEF1
:10595000CDBFDF91CF911F910F91FF90EF90DF901E
:10596000CF90BF90AF909F908F907F906F905F90FF
:105970004F903F902F9008950F931F93CF93E091F6
:105980008D02F0918E02309719F08FE792E0099521
:105990000091810210918202E091B002F091B10277
:1059A00082E00995E091B002F091B10281E00995A1
:1059B00020E030E045E1B8018FE792E00E941A3F15
:1059C000C82F882341F022EB32E047E1B8018FE78E
:1059D00092E00E941A3FE091B002F091B10280E0A3
:1059E00009958C2FCF911F910F910895682F8BE708
:1059F00092E00C9413630F931F93CF93DF93EC010A
:105A00008C010A5E1F4FFE018491882331F00E94B1
:105A1000F62C21960C171D07B1F7DF91CF911F913E
:105A20000F9108950F931F93CF93DF93C2E6D2E0B7
:105A300008E712E08991882329F00E94F62C0C17C0
:105A40001D07C1F7DF91CF911F910F91089520910C
:105A50008302309184022817390709F444C09093D7
:105A6000840280938302009709F437C02091960244
:105A7000FC01211107C03596E491E0939702FC01E7
:105A80003C960FC0213039F43F96E491E0939702A1
:105A9000FC01709606C03D96E491E0939702FC01EC
:105AA0003E9684918093980280919702082E000C74
:105AB000990B20919802821B910927FD93952091C3
:105AC0009902203441F0829FC001112426E096956E
:105AD00087952A95E1F780939A0285ED9EE390934E
