:100000000C9468160C9492160C9492160C949216FA
:100010000C9492160C9492160C9492160C949216C0
:100020000C9492160C9492160C9492160C949216B0
:100030000C9492160C94E5660C9492160C949216FD
:100040000C9492160C944D720C94FAD00C94921657
:100050000C9432BD0C9492160C9492160C94921639
:100060000C9492160C9492160C9492160C94921670
:100070000C9492160C9492160C9492160C94921660
:100080000C9475D20C9492160C9492163148364802
:100090003B484548734873484F4857485F4869484C
:1000A00025550B550E5511551455205517553155DD
:1000B0001A551D55F7C7BEC6F5C633C8F5C6F5C6F1
:1000C000F5C6F5C6F5C6F5C6F5C6F5C6F5C6F5C658
:1000D000F5C6F5C6F5C6F5C6F5C6F5C6F5C6F5C648
:1000E000F5C6F5C6F5C6F5C6F5C6F5C6F5C6F5C638
:1000F0002DC8F5C6F5C6F5C6F5C6F5C6F5C6F5C6EE
:10010000F5C606C8F5C6F5C6F5C6F5C6F5C6F5C604
:10011000F5C6F5C6F5C6F5C64AC8F2C685D088D07C
:100120007BD07FD09FD09FD08CD090D096D09AD0CB
:100130004E414E494E495459494E46CDCCCC3D0ACC
:10014000D7233C17B7D13877CC2B329595E6241FAF
:10015000B14F0A000020410000C84200401C462068
:10016000BCBE4CCA1B0E5AAEC59D7400407A10F33B
:100170005A00A0724E18090010A5D4E80000E876D5
:1001800048170000E40B54020000CA9A3B0000002C
:10019000E1F505000080969800000040420F000045
:1001A00000A08601000000102700000000E8030006
:1001B0000000006400000000000A000000000001D0
:1001C00000000000002C76D888DC674F0823DFC1D0
:1001D000DFAE59E1B1B796E5E3E453C63AE651998B
:1001E0007696E8E6C28426EB898C9B62ED407C6FB4
:1001F000FCEFBC9C9F40F2BAA56FA5F490055A2A6B
:10020000F75C936B6CF9676DC11BFCE0E40D47FE76
:10021000F520E6B500D0ED902E030094357705006B
:1002200080841E080000204E0A000000C80C3333F2
:1002300033330F986E12831141EF8D2114893BE601
:100240005516CFFEE6DB18D1844B381BF77C1D908A
:100250001DA4BBE424203284725E228100C9F124F3
:10026000ECA1E53D27536C6565702E2E2E00486F7E
:100270006D652058592066697273740A00486F6D65
:100280006520585920666972737400205A3A20001C
:1002900020593A200042656420583A20004D657389
:1002A0006820706F696E742063616E6E6F74206277
:1002B00065207265736F6C7665640A00436C6963D0
:1002C0006B20746F20726573756D652E2E2E004E37
:1002D0006F206D6F76652E00456E642066696C65D3
:1002E000206C6973740A00426567696E2066696CE8
:1002F00065206C6973740A004D31323500286E6FC9
:100300002066696C6529005344207072696E7469B7
:100310006E67206279746520004E6F74205344200C
:100320007072696E74696E670A0043757272656EE9
:10033000742066696C653A200046696C65206465C6
:100340006C657465643A0044656C6574696F6E2011
:100350006661696C65642C2046696C653A200025ED
:1003600069730025696D202569730025696820255A
:10037000696D202569730025696420256968202539
:10038000696D202569730025697920256964202518
:1003900069682025696D20256973005072696E7443
:1003A0002074696D653A20004B494C4C45442E2021
:1003B000006F6B0020573A004520436F6F6C696EE9
:1003C000672E2E2E00452048656174696E672E2EBB
:1003D0002E0020573A0042656420636F6F6C696E8F
:1003E000672E2E2E004265642068656174696E6711
:1003F0002E2E2E005448334420424C546F756368AF
:10040000204F66662E002C20002C20004649524DBD
:10041000574152455F4E414D453A4D61726C696E90
:1004200020544833442055312E52322E423320532B
:100430004F555243455F434F44455F55524C3A2018
:1004400050524F544F434F4C5F56455253494F4EB5
:100450003A312E30204D414348494E455F54595062
:10046000453A5448334420424C546F7563682045E4
:10047000585452554445525F434F554E543A3120DB
:10048000555549443A0A002F2F200020540020528D
:1004900000416363656C65726174696F6E3A2050E8
:1004A000005741524E494E4721204C6F77205A2029
:1004B0004A65726B206D6179206C65616420746F90
:1004C00020756E77616E74656420706175736573F5
:1004D0002E0A0020466C6F773A2000206F7574203A
:1004E0006F662072616E67650A00536572766F20D1
:1004F000003A200020536572766F200050726F62C0
:1005000065205A204F66667365743A200020643A6D
:100510000020693A0020703A00496E76616C696487
:100520002065787472756465720A004E6F2063618D
:100530007365206C696768740A00426564204C65C5
:1005400076656C696E6720004661696C656420742D
:100550006F20656E61626C6520426564204C657633
:10056000656C696E670A00454550524F4D204F4BF0
:100570000A003F5A206F7574206F662072616E67A3
:100580006520282D3520746F2031290A003A20007B
:1005900050726F6265205A204F6666736574004121
:1005A00063746976652045787472756465723A2063
:1005B00000496E76616C6964206578747275646553
:1005C000720A0057726974696E6720746F206669D9
:1005D0006C653A20006F70656E206661696C6564B9
:1005E0002C2046696C653A20006F70656E2066614C
:1005F000696C65642C2046696C653A200046696C1C
:10060000652073656C65637465640A002053697ABC
:10061000653A200046696C65206F70656E65643AC6
:1006200020002066696C653A2000646F696E67007F
:100630006672657368004E6F772000454E44205304
:100640005542524F5554494E450A002220706F734F
:10065000002220706172656E743A22005355425236
:100660004F5554494E452043414C4C2074617267AC
:1006700065743A22004B494C4C45442E200074725C
:1006800079696E6720746F2063616C6C207375628A
:100690002D67636F64652066696C65732077697484
:1006A0006820746F6F206D616E79206C6576656C63
:1006B000732E204D4158206C6576656C2069733A25
:1006C000004572726F723A006F70656E20666169E4
:1006D0006C65642C2046696C653A200043616E6E3F
:1006E0006F74206F70656E2073756264697220008C
:1006F0006563686F3A0000002200250028002B0087
:1007000000002100240027002A0002020202020247
:1007100002020404040404040404030303030303A3
:10072000030301010101010101010102040810207C
:1007300040800102040810204080010204081020BB
:10074000408080402010080402012020506C616E1F
:100750006E657242756666657242797465733A2099
:10076000002046726565204D656D6F72793A2000F4
:10077000436F6D70696C65643A204A756E20313143
:1007800020323032300A00207C20417574686F724C
:100790003A202854483344290A0000204C617374DD
:1007A00020557064617465643A20005448334420D5
:1007B00055312E52322E42330A004D61726C696EF1
:1007C0000020536F6674776172652052657365749B
:1007D0000A00205761746368646F6720526573650F
:1007E000740A002042726F776E206F757420526514
:1007F0007365740A002045787465726E616C2052CE
:10080000657365740A00506F77657255700A0073DE
:10081000746172740A006175746F25692E670065D2
:1008200072726F722077726974696E6720746F20BC
:1008300066696C650A00456E6473746F7073202579
:100840006320256320256320256300205A3A002079
:10085000593A0020583A00656E6473746F707320C3
:100860006869743A2000446F6E6520736176696E22
:10087000672066696C652E0A004D32390020746F5E
:100880006F206C6F6E6720657874727573696F6E18
:100890002070726576656E7465640A0020636F6C03
:1008A0006420657874727573696F6E2070726576F6
:1008B000656E7465640A006F6B0020746F6F206C46
:1008C0006F6E6720657874727573696F6E207072D1
:1008D0006576656E7465640A0020636F6C642065DC
:1008E0007874727573696F6E2070726576656E7458
:1008F00065640A00627573793A2070617573656486
:1009000020666F7220696E7075740A006275737963
:100910003A2070617573656420666F722075736527
:10092000720A00627573793A2070726F636573732F
:10093000696E670A00506C65617365207265736546
:1009400074005052494E5445522048414C5445443D
:10095000005072696E7465722068616C7465642EF3
:10096000206B696C6C28292063616C6C6564210ABA
:1009700000656E7175657565696E672022000000FF
:100980000000000000000000000000002042000005
:10099000204200008040000000005761726E696EC6
:1009A000673A20486F6D696E672042756D7020440C
:1009B000697669736F72203C20310A0002020400DC
:1009C00000A0400000A0400000004000006B430079
:1009D000006B4300007A43FFFFFF4D3234004D327D
:1009E0003320257300556E6B6E6F776E20636F6DCD
:1009F0006D616E643A202200496E736572742066E0
:100A0000696C616D656E7420616E642070726573CF
:100A10007320627574746F6E20286F72204D3130B0
:100A200038290A00486F74656E6420746F6F206304
:100A30006F6C640A0050726F62696E67206661694C
:100A40006C65640A0050726F62696E672066616946
:100A50006C656400205A3A200020593A2000426513
:100A60006420583A200053442063617264206F6B05
:100A70000A006F70656E526F6F74206661696C65F5
:100A8000640A00766F6C756D652E696E69742066F8
:100A900061696C65640A00534420696E697420665C
:100AA00061696C0A00486F6D652025732573257395
:100AB000206669727374002066697273740A005A42
:100AC0000059005800486F6D65200020496E76611E
:100AD0006C6964206578747275646572200000002A
:100AE0000000000000000000000000006B43000058
:100AF0006B4300007A4342696C696E656172204CF9
:100B00006576656C696E6720477269643A0A0020F1
:100B10002844525952554E290047323920417574A4
:100B20006F20426564204C6576656C696E67003F96
:100B300020284C2C522C462C4229206F7574206F93
:100B40006620626F756E64732E0A003F2856296511
:100B500072626F7365206C6576656C2069732069BD
:100B60006D706C61757369626C652028302D342955
:100B70002E0A00426164205A2076616C75650A0075
:100B80004E6F2062696C696E65617220677269647C
:100B90000A0024F4D43050C38E20C2A24017828BA6
:100BA0007011127A910D816CD90AA861E108C758B9
:100BB0006607615143061E4B5D05C145A7041A41F6
:100BC0001104093D9803713931034036DB02653366
:100BD0009102D4305402802E1D02632CEE01752A3E
:100BE000C501B028A001102781018F2564012B24A5
:100BF0004B01E0223401AC211F018D200D01801F2B
:100C0000FC00841EED00971DDF00B81CD200E61B1F
:100C1000C600201BBC00641AB200B219A8000A1951
:100C2000A0006A189900D117910040178B00B516E3
:100C3000840031167E00B31579003A157300C7148D
:100C40006F0058146A00EE136600881363002513C2
:100C50005E00C7125B006C12570015125400C111E0
:100C6000510070114F0021114B00D61049008D101A
:100C700047004610440002104200C00F4000800FA1
:100C80003E00420F3C00060F3B00CB0E3800930E97
:100C900037005C0E3500270E3400F30D3200C10D15
:100CA0003100900D3000600D2E00320D2D00050D2D
:100CB0002C00D90C2B00AE0C2900850C29005C0CF3
:100CC0002700350C27000E0C2600E80B2400C40B6F
:100CD0002400A00B23007D0B23005A0B2100390BAD
:100CE0002100180B2000F80A1F00D90A1E00BB0AB9
:100CF0001E009D0A1D00800A1D00630A1C00470A91
:100D00001B002C0A1B00110A1A00F7091A00DD0942
:100D10001900C4091900AB091900920917007B09D1
:100D20001800630917004C0916003609160020093F
:100D300016000A091500F5081500E0081400CC0893
:100D40001400B8081400A4081400900813007D08CB
:100D500012006B08130058081200460812003408ED
:100D60001100230811001208110001081100F007FA
:100D70001000E0071000D0071000C0071000B007F7
:100D80000F00A107100091070E0083070F007407E2
:100D90000F0065070E0057070E0049070E003B07BE
:100DA0000D002E070E0020070D0013070D0006078B
:100DB0000D00F9060C00ED060D00E0060C00D4064F
:100DC0000C00C8060C00BC060C00B0060C00A40603
:100DD0000B0099060C008D060B0082060B007706AF
:100DE0000B006C060B0061060A0057060B004C0650
:100DF0000A0042060A0038060A002E060A002406E7
:100E00000A001A060A001006090007060A00FD0576
:100E10000900F4050900EB050900E2050900D90500
:100E20000900D0050900C7050900BE050900B50580
:100E30000800AD050800A50509009C0508009405FB
:100E400008008C050800840508007C05080074056E
:100E500008006C050700650508005D0507005605DC
:100E600008004E0507004705070040050800380543
:100E70000700310507002A050700230507001C05A8
:100E80000600160507000F05070008050600020505
:100E90000700FB040600F5040700EE040600E80462
:100EA0000600E2040700DB040600D5040600CF04B8
:100EB0000600C9040600C3040600BD040600B7040A
:100EC0000600B1040500AC040600A6040600A00458
:100ED00005009B04060095040500900406008A04A2
:100EE000050085040500800406007A0405007504E9
:100EF0000500700405006B0405006604050061042C
:100F000005005C04050057040500520405004D046B
:100F1000050048040500430405003E0404003A04AB
:100F2000050035040500300404002C0405002704E6
:100F30000400230405001E0404001A04040016041F
:100F40000500110404000D04040009040500040454
:100F5000040000040400FC030400F8030400F4038C
:100F60000400F0030400EC030400E8030400E403BD
:100F70000400E0030400DC030400D8030400D403ED
:100F80000400D0030400CC030400C8030300C5031D
:100F9000030024F404D9201BC40C5C0E9804C4097B
:100FA0005F0265077101F405F900FB04B300480412
:100FB0008700C10369005803550003034500BE02C2
:100FC0003A008402310053022A002902250004025B
:100FD0002000E4011C00C8011900AF0117009801AE
:100FE000140084011300710110006101100051010F
:100FF0000E0043010D0036010B002B010B002001F8
:101000000B00150109000C01090003010800FB0099
:101010000800F3000800EB000700E4000600DE0013
:101020000600D8000600D2000600CC000500C7006C
:101030000500C2000500BD000400B9000400B500B1
:101040000400B1000400AD000400A9000400A500E4
:101050000300A20003009F0004009B00030098000F
:1010600003009500020093000300900003008D0030
:1010700002008B000300880002008600020084004A
:101080000300810002007F0002007D0002007B005F
:10109000020079000200770001007600020074006F
:1010A000020072000100710002006F0002006D007A
:1010B00001006C0002006A00010069000200670084
:1010C000010066000100650001006400020062008A
:1010D000010061000100600001005F0002005D008E
:1010E00001005C0001005B0001005A000100590092
:1010F0000100580001005700010056000100550092
:101100000100540001005300000053000100520090
:10111000010051000100500001004F0001004E008D
:1011200000004E0001004D0001004C0001004B008A
:1011300000004B0001004A00010049000100480086
:101140000000480001004700010046000000460082
:10115000010045000000450001004400010043007B
:101160000000430001004200000042000100410075
:10117000000041000100400001003F0000003F006E
:1011800001003E0000003E0001003D0000003D0067
:1011900001003C0000003C0000003C0001003B005E
:1011A00000003B0001003A0000003A000100390055
:1011B000000039000100380000003800000038004D
:1011C0000100370000003700010036000000360043
:1011D0000000360001003500000035000000350039
:1011E000010034000000340000003400010033002E
:1011F0000000330000003300010032000000320024
:101200000000320001003100000031000000310018
:1012100001003000000030000000300001002F000D
:1012200000002F0000002F0000002F0001002E0002
:1012300000002E0000002E0001002D0000002D00F7
:1012400000002D0000002D0001002C0000002C00EB
:1012500000002C0000002C0001002B0000002B00DF
:1012600000002B0000002B0001002A0000002A00D3
:1012700000002A0000002A000100290000002900C7
:1012800000002900000029000000290001002800BA
:1012900000002800000028000000280000002800AE
:1012A00001002700000027000000270000002700A1
:1012B0000000270001002600000026000000260094
:1012C0000000260000002600010025000000250087
:1012D000000025000000250000002500000025007A
:1012E000010024000000240000002400000024006D
:1012F0000000240001002300000023000000230060
:101300000000230000002300000023000000230051
:101310000100220000002200000022000000220044
:101320000000220000002200010021000000210036
:101330000000210000002100000021000000210029
:10134000000021000100200000002000000020001B
:10135000000020000000200000002000000020000D
:101360000000200001001F0000001F0000001F00FF
:1013700000001F0000001F0000001F0000001F00F1
:1013800001001E0000001E0000001E0000001E00E4
:101390000000043700001E290000511B00005810F7
:1013A000000010090000CC04000078020000410198
:1013B00000006265640A002C2073797374656D20E7
:1013C00073746F7070656421204865617465725F25
:1013D00049443A20004265642068656174696E671B
:1013E000206661696C65640048656174696E672098
:1013F0006661696C65640045312048656174696E99
:1014000067206661696C65640048656174696E6730
:10141000206661696C65640070012C0190012701F0
:10142000B0012201C0011D01F001180110021301D9
:1014300030020E016002090190020401C002FF00A7
:101440000003FA004003F5008003F000D003EB0036
:101450002004E6007004E100E004DC004005D70051
:10146000C005D2004006CD00D006C8008007C300EA
:101470003008BE00F008B900C009B400B00AAF00DF
:10148000B00BAA00D00CA500000EA000500F9B00CE
:10149000C01096005012910000148C00C0158700F7
:1014A000B0178200B0197D00D01B7800001E7300B9
:1014B00040206E0090226900F024640040275F0005
:1014C00090295A00E02B5500102E500020304B0080
:1014D00010324600E033410090353C0010373700B1
:1014E00070383200A0392D00B03A2800A03B23000C
:1014F000603C1E00103D1900903D1400103E0F008E
:10150000703E0A00C03E0500003F0000403FFBFF68
:10151000803FF6FFC03FF1FF1000C90210012C010F
:101520004001220170011801B0010E01F001040117
:101530005002FA00B002F0003003E600D003DC00F5
:101540009004D2007005C800A006BE000008B400D8
:10155000B009AA00D00BA000600E960060118C00AC
:101560000015820020197800C01D6E00A0226400C2
:10157000B0275A00902C500000314600E0343C0067
:1015800010383200903A2800603C1E00A03D140044
:10159000803E0A00203F0000453120544845524D0E
:1015A000414C2052554E4157415900424544205428
:1015B0004845524D414C2052554E415741590054D7
:1015C0006865726D616C2052756E61776179004556
:1015D00031204572723A204D415854454D500045D6
:1015E00072723A204D415854454D502042454400B6
:1015F0004D415854454D5020747269676765726556
:1016000064004531204572723A204D494E54454D93
:1016100050004572723A204D494E54454D5020427B
:101620004544004D494E54454D50207472696767DA
:101630006572656400202F002042403A0020403A45
:10164000004D6F76652058004D6F76652059004D2E
:101650006F7665205A004578747275646572004D26
:101660006F766520302E316D6D004D6F76652031BF
:101670006D6D004D6F76652031306D6D004D6F766C
:1016800065206178697300457874727564657200CD
:101690004D6F7665205A004D6F76652059004D6F6D
:1016A00076652058004578747275646572004D6FD8
:1016B0007665205A004D6F76652059004D6F76652E
:1016C00020580050726570617265005265736574D0
:1016D00020454550524F4D00436F6E74726F6C0041
:1016E000526573657420454550524F4D0053746FD9
:1016F00072652073657474696E677300424C546F31
:10170000756368004D6F74696F6E0054656D706528
:10171000726174757265004D61696E004D333033CE
:101720002055312045256920532569005049442022
:101730004175746F74756E6500504944204175742D
:101740006F74756E65005049442D44005049442D16
:1017500044005049442D49005049442D4900504906
:10176000442D50005049442D500046616E20737046
:101770006565640046616E2073706565640042654E
:101780006400426564004E6F7A7A6C65004E6F7A31
:101790007A6C6500436F6E74726F6C004D3630303A
:1017A0003A20546F6F20636F6C6400486F74656EED
:1017B0006420746F6F20636F6C640A004D343820AE
:1017C000526573756C743A202573005374616E64AE
:1017D00061726420446576696174696F6E3A2000B5
:1017E00046696E6973686564210A003F2028582C99
:1017F0005929206F7574206F6620626F756E64734F
:101800002E0A004D343820546573742052756E6E64
:10181000696E672E2E2E0A00205A3A0020593A008F
:1018200020436F756E7420583A0020453A00205AC4
:101830003A0020593A00583A0023646566696E659B
:101840002044454641554C545F4B64200023646559
:1018500066696E652044454641554C545F4B69208E
:101860000023646566696E652044454641554C54C5
:101870005F4B702000504944204175746F74756E41
:10188000652066696E6973686564212050757420EF
:10189000746865206C617374204B702C204B692038
:1018A000616E64204B6420636F6E7374616E747339
:1018B0002066726F6D2062656C6F7720696E746F41
:1018C00020436F6E66696775726174696F6E2E680A
:1018D0000A00504944204175746F74756E65206626
:1018E00061696C6564212074696D656F75740A00A7
:1018F000453120544845524D414C2052554E415798
:10190000415900546865726D616C2052756E617743
:1019100061790045312048656174696E67206661B0
:10192000696C65640048656174696E672066616909
:101930006C656400504944204175746F74756E6520
:10194000206661696C6564212054656D7065726103
:101950007475726520746F6F20686967680A00206B
:101960004B643A2000204B693A2000204B703A200B
:10197000000A20436C617373696320504944200A54
:10198000002054753A2000204B753A2000206D61EC
:10199000783A2000206D696E3A200020643A2000D9
:1019A00020626961733A2000504944204175746F88
:1019B00074756E65206661696C6564212054656D7F
:1019C000706572617475726520746F6F20686967E5
:1019D000680A00504944204175746F74756E652023
:1019E00073746172740A00504944204175746F74B5
:1019F000756E65206661696C6564212042616420B2
:101A00006578747275646572206E756D6265720AB0
:101A100000496E736572742066696C616D656E74E1
:101A200020616E6420707265737320627574746FC8
:101A30006E0A00507265737320627574746F6E2045
:101A4000746F2068656174206E6F7A7A6C650A0025
:101A5000496E736572742066696C616D656E742081
:101A6000616E6420707265737320627574746F6E3A
:101A700020286F72204D313038290A0020204E6F07
:101A80007A7A6C653A20002000506C65617365209D
:101A9000776169742E2E2E0048656174696E672027
:101AA0006E6F7A7A6C650020204E6F7A7A6C653A98
:101AB0002000200068656174206E6F7A7A6C652E54
:101AC00000507265737320627574746F6E20746F4A
:101AD0000020204E6F7A7A6C653A2000746F206384
:101AE0006F6E74696E75652E2E2E00616E642070A7
:101AF0007265737320627574746F6E00496E7365DE
:101B000072742066696C616D656E740020204E6F82
:101B10007A7A6C653A2000200066696C616D656EAA
:101B200074206C6F6164005761697420666F720085
:101B300020204E6F7A7A6C653A2000200066696C2E
:101B4000616D656E742070757267650057616974A8
:101B500020666F7200746F20726573756D65005733
:101B600061697420666F72207072696E740000067D
:101B70000900FE0701920321207FFF07FF07FF00F6
:101B800000000600000107070602008080808080B8
:101B90000080030202060105A0A005070706000059
:101BA0005050F850F850500507070600002078A064
:101BB0007028F020050707060000C0C810204098D4
:101BC000180507070600006090A040A8906802036F
:101BD00003060104C040800307070601002040807F
:101BE000808040200307070601008040202020401D
:101BF0008005050506000120A870A820050505063A
:101C000000012020F820200203030602FFC04080CC
:101C1000050101060003F8020202060200C0C00529
:101C20000505060001081020408005070706000092
:101C30007088888888887003070706010040C040C4
:101C4000404040E00507070600007088087080806B
:101C5000F8050707060000F81020100808F005072F
:101C60000706000010305090F81010050707060016
:101C700000F880F0080888700507070600007080EB
:101C800080F0888870050707060000F808102020FB
:101C90002020050707060000708888708888700576
:101CA0000707060000708888780808700205050696
:101CB0000200C0C000C0C00206060602FFC0C0008D
:101CC000C04080040707060000102040804020101C
:101CD000050303060002F800F80407070601008068
:101CE000402010204080050707060000708808107B
:101CF00020002005070706000070880868A8A87063
:101D0000050707060000708888F888888805070797
:101D1000060000F08888F08888F0050707060000B4
:101D200070888080808870050707060000F088882A
:101D3000888888F0050707060000F88080F080801A
:101D4000F8050707060000F88080F080808005070E
:101D500007060000708880B88888700507070600AD
:101D600000888888F8888888010707060200808034
:101D70008080808080050707060000381010101052
:101D800090600507070600008890A0C0A090880515
:101D90000707060000808080808080F8050707061E
:101DA000000088D8A888888888050707060000886A
:101DB00088C8A89888880507070600007088888862
:101DC000888870050707060000F08888F08080800A
:101DD00005070706000070888888A890680507072F
:101DE000060000F08888F0A090880507070600002C
:101DF000788080700808F0050707060000F82020AA
:101E00002020202005070706000088888888888809
:101E10007005070706000088888888885020050715
:101E2000070600008888888888A8500507070600EC
:101E30000088885020508888050707060000888899
:101E40008850202020050707060000F808102040D1
:101E500080F8030707060100E08080808080E005AD
:101E60000505060001804020100803070706010051
:101E7000E02020202020E0050303060004205088F5
:101E8000050101060000F802020206020580400575
:101E90000505060000700878887805070706000029
:101EA0008080B0C88888F005050506000070808035
:101EB0008870050707060000080868988888780574
:101EC00005050600007088F8807005070706000009
:101ED0003048E0404040400506060600FF70888814
:101EE0007808700507070600008080B0C8888888D9
:101EF00001070706020080008080808080030808B8
:101F00000601FF200020202020A040040707060033
:101F100000808090A0C0A090030707060100C04089
:101F200040404040E0050505060000D0A8A8A8A84C
:101F3000050505060000B0C8888888050505060067
:101F40000070888888700506060600FFF08888F013
:101F500080800506060600FF788888780808050551
:101F600005060000B0C880808005050506000070E9
:101F7000807008F00407070600004040E040404041
:101F8000300505050600008888889868050505065F
:101F9000000088888850200505050600008888A86C
:101FA000A850050505060000885020508805060643
:101FB0000600FF888888780870050505060000F887
:101FC000102040F8030707060100204040804040F1
:101FD0002001070706020080808080808080030740
:101FE00007060100804040204040800502020600B4
:101FF0000268900000000600004368616E6765207B
:1020000066696C616D656E74004368616E6765201A
:1020100066696C616D656E74004D363030204230FB
:102020000050726F6265205A204F666673657400B7
:10203000466C6F7700466C6F770046616E20737058
:102040006565640046616E20737065656400426575
:102050006400426564004E6F7A7A6C65004E6F7A58
:102060007A6C650053706565640053706565640043
:102070004D61696E005072656865617420504C4115
:1020800020456E64005072656865617420504C4153
:1020900020426564005072656865617420504C414F
:1020A0000050726570617265005072656865617498
:1020B0002041425320456E6400507265686561742A
:1020C0002041425320426564005072656865617426
:1020D0002041425300507265706172650050726514
:1020E000686561742041425300507265686561748F
:1020F00020504C4100436F6F6C646F776E004368F3
:10210000616E67652066696C616D656E7400436819
:10211000616E67652066696C616D656E74004D3631
:1021200030302042300044697361626C6520737402
:10213000657070657273004D38340052756E204DB5
:1021400034382054657374004732380A4D343820CF
:1021500050313000486F6D65205A00473238205AA0
:1021600000486F6D65205900473238205900486F8C
:102170006D652058004732382058004175746F2033
:10218000686F6D6500473238004D6F766520617865
:102190006973004D61696E00454550524F4D206492
:1021A00061746173697A65206572726F722E0A00BC
:1021B000290A002062797465733B206372632000F2
:1021C00053657474696E67732053746F726564200D
:1021D0002800290A002062797465733B20637263CA
:1021E00020002073746F7265642073657474696E67
:1021F00067732072657472696576656420280020B3
:102200002863616C63756C6174656429210A002020
:10221000213D2000454550524F4D20435243206DF3
:1022200069736D61746368202D202873746F726503
:10223000642920002053697A653A2000496E64655C
:10224000783A2000204D61726C696E3D5635362912
:102250000A0028454550524F4D3D00454550524FCC
:102260004D2076657273696F6E206D69736D617450
:102270006368200000060900FE000000000001095C
:102280000008FE000005080806000040F0C8888825
:10229000987810050808060000C0F88888888888A3
:1022A000F80505050600012030F83020050808066D
:1022B00000002070F820202020E00509090600FF1A
:1022C0002070A8A8B8888870200509090600FFE0DA
:1022D00080C0B0A8283028280509090600FFF8A802
:1022E0008888888888A8F8050A0A0600FE205050C9
:1022F000505088A8A8887003030306000340A0403C
:1023000025753A2530327500253032753A25303240
:10231000750025756420253032753A2530327500F8
:102320005A00590058000920000000000000000079
:1023300000000000003FFFF000000000000000006F
:1023400000000000380070000000000000000000E5
:1023500000000030FC300000000000000000000021
:10236000000020FC10000000000000000000000041
:1023700000207810000000000000000000000000B5
:102380002030100000000000000000000000002CC1
:1023900000D03FC0000000000000002082002E316D
:1023A000D07FE0000000000000001041002F7BD033
:1023B0007FE0000000000000001041002F7BD07F74
:1023C000E0000000000000002082002E31D03FC05D
:1023D000000000000000004104002C00D03FC000BD
:1023E0000000000000008208002030107FE00000A4
:1023F00000000000008208002078107FE00000004C
:102400000000000041040020FC107FE000000000FC
:1024100000000020820030FC301F8000000000001F
:1024200000000000003800700F00000000000000F5
:1024300000FFFFC03FFFF0060000000000000000AA
:10244000FFFFC000000000000000000000000000CE
:1024500000003FFFF000000000000000000000004E
:1024600000380070000000000000000000000000C4
:102470003186300000000000000000000000002352
:102480008710000000000000000000000000278707
:10249000900000000000000000000000002F87D026
:1024A0000000000000000000000000002F03D03FEB
:1024B000C0000000000000002082002030107FE0FB
:1024C000000000000000001041002078107FE000B4
:1024D0000000000000001041002078107FE00000A4
:1024E00000000000002082002030103FC0000000EB
:1024F000000000004104002F03D03FC00000000096
:102500000000008208002F87D07FE000000000005C
:1025100000008208002787907FE000000000000094
:10252000004104002387107FE0000000000000004D
:102530002082003186301F80000000000000000073
:1025400000003800700F0000000000000000FFFFD6
:10255000C03FFFF0060000000000000000FFFFC0C9
:1025600000000048617264636F64656420446566BE
:1025700061756C742053657474696E6773204C6F59
:10258000616465640A00F401000020030000F401A6
:10259000000088130000000048430000484300008A
:1025A0007041000048420000A0420000A04200002C
:1025B000C8430000BE423A0A0020286D6D29002061
:1025C000204D383531205A005A2D50726F626520E7
:1025D0004F66667365740020440020490020204D3A
:1025E0003330312050005049442073657474696E53
:1025F00067733A0A00205A00204A002020473239E7
:10260000205720490020204D34323020530041759E
:10261000746F20426564204C6576656C696E673A1C
:102620000A00204500205A0020590020580020545C
:102630000020530020204D32303520510020453CF1
:102640006D61785F655F6A65726B3E0020583C6D16
:1026500061785F785F6A65726B3E20593C6D617886
:102660005F795F6A65726B3E205A3C6D61785F7A74
:102670005F6A65726B3E00416476616E6365643AC1
:1026800020513C6D696E5F7365676D656E745F7434
:10269000696D655F75733E20533C6D696E5F66655D
:1026A0006564726174653E20543C6D696E5F74723E
:1026B0006176656C5F66656564726174653E002075
:1026C000540020520020204D32303420500041630D
:1026D00063656C65726174696F6E2028756E6974CC
:1026E000732F7332293A20503C7072696E745F61A7
:1026F0006363656C3E20523C726574726163745F03
:10270000616363656C3E20543C74726176656C5FF6
:10271000616363656C3E0A00204500205A00205921
:102720000020204D3230312058004D6178696D75A0
:102730006D20416363656C65726174696F6E2028FA
:10274000756E6974732F7332293A0A002045002090
:102750005A0020590020204D3230332058004D615E
:1027600078696D756D206665656472617465732046
:1027700028756E6974732F73293A0A00204500206A
:102780005A0020590020204D3932205800537465DA
:1027900070732070657220756E69743A0A0020208B
:1027A0004D3134392043203B20556E6974732069C4
:1027B0006E2043656C736975730A002020473231BF
:1027C000202020203B00486F6D696E67206661699C
:1027D0006C656400545249474745524544006F7048
:1027E000656E003A20007A5F6D696E00795F6D69F1
:1027F0006E00785F6D696E005265706F7274696EFD
:102800006720656E6473746F702073746174757380
:102810000A007C3C3E5E2B3D3F2F5B5D3B2C2A2219
:102820005C004B494C4C45442E200053544F5050B3
:1028300045442E20005072696E7465722073746F67
:10284000707065642064756520746F206572726FA6
:1028500072732E2046697820746865206572726FE5
:102860007220616E6420757365204D39393920748A
:102870006F20726573746172742E202854656D70B8
:102880006572617475726520697320726573657411
:102890002E205365742069742061667465722072FD
:1028A000657374617274696E67290A004E6F204304
:1028B0006865636B73756D2077697468206C696EE9
:1028C00065206E756D6265722C204C617374204CAE
:1028D000696E653A20004E6F20436865636B7375BF
:1028E0006D2077697468206C696E65206E756D6205
:1028F00065722C204C617374204C696E653A20001F
:10290000636865636B73756D206D69736D61746366
:10291000682C204C617374204C696E653A20004C21
:10292000696E65204E756D626572206973206E6FE9
:1029300074204C617374204C696E65204E756D6215
:1029400065722B312C204C617374204C696E653A92
:1029500020004D313130004D333100534420726539
:102960006164206572726F720A00446F6E65207038
:1029700072696E74696E672066696C650A005072D0
:102980006F6265205A204F666673657400436F6EF0
:1029900074726F6C0043616E6E6F7420656E746547
:1029A00072207375626469723A2000022E2E000153
:1029B00052656672657368004D61696E004D37300F
:1029C0003220542564004D363030204230205425CA
:1029D00064004D373032203B2564004D37303120C4
:1029E000542564004368616E67652066696C616D9B
:1029F000656E7400507265686561742041425300D1
:102A00005072656865617420504C41004368616E86
:102A100067652066696C616D656E74005052494E41
:102A2000542050415553454400554E4C4F4144208D
:102A300046494C414D454E54004C4F414420464977
:102A40004C414D454E54005075726765206D6F7254
:102A50006500436F6E74696E756500524553554D40
:102A600045204F5054494F4E533A0020204E6F7A24
:102A70007A6C653A20006368616E6765006F662056
:102A80007468652066696C616D656E740057616974
:102A90007420666F722073746172740020204E6F10
:102AA0007A7A6C653A2000200066696C616D656E0B
:102AB0007420756E6C6F6164005761697420666F75
:102AC00072005448334420424C546F75636820525E
:102AD000656164792E005072696E74696E672E2E7E
:102AE0002E005072696E74207061757365640043C6
:102AF0006D643A2053746F7700436D643A204465E7
:102B0000706C6F7900436D643A2053572D4D6F649C
:102B10006500436D643A2053656C662D546573748B
:102B200000436D643A205265736574004D61696EAF
:102B3000004D313235004D3234005072696E7420D0
:102B400061626F72746564004D3231004E6F2053C4
:102B5000442063617264004368616E67652053447A
:102B60002063617264004D3231005072696E7420CE
:102B700066726F6D2053440053746F7020707269D9
:102B80006E7400526573756D65207072696E7400A5
:102B9000496E69742E205344206361726400506151
:102BA000757365207072696E7400436F6E74726F16
:102BB0006C00507265706172650054756E650049F5
:102BC0006E666F2073637265656E000E000E000EF8
:102BD000000E000E000E000E000E007FC03F801F92
:102BE000000E00040004000E001F003F807FC00E96
:102BF000000E000E000E000E000E000E000E000370
:102C0000F8000FFE001E0F00380700380380700325
:102C100080700FE07007C0700380700100700000CA
:102C20003800003807001E0F000FFE0003F80000F8
:102C3000FE0003FF800783C00E01C00E00E01C00F1
:102C4000E07F00E03E00E01C00E00800E00000E063
:102C50000001C00E01C00F078007FF0001FC00FF4C
:102C6000FFFF7F80FFC0FFC0FFC07F807F80FFC06D
:102C7000FFC0FFC03F001E000C0050726F62652055
:102C80005A204F6666736574004572726F722077C2
:102C9000726974696E6720746F20454550524F4DBC
:102CA000210A00000000010200090A0000000004DF
:102CB0000308070000000000000000000000000002
:102CC000000000526573656E643A2000DDD600DCBA
:102CD00011241FBECFEFD0E4DEBFCDBF12E0A0E0D5
:102CE000B1E0E4E7FCED01E00BBF02C007900D92FC
:102CF000A635B107D9F726E1A6E5B2E001C01D92DD
:102D0000A43AB207E1F716E1C7E6D6E104C021977D
:102D1000FE010E9499EDC636D107C9F70E9489D7F6
:102D20000C942DEE0C9400002F923F924F925F92E4
:102D30006F927F928F929F92AF92BF92CF92DF92CB
:102D4000EF92FF920F931F93CF93DF93CDB7DEB730
:102D5000C254D1090FB6F894DEBF0FBECDBF21E03B
:102D600020935C0B80911B168D3409F467C3843566
:102D700011F40C943F26873411F00C948B2680912B
:102D8000191690911A168D31910509F435C184F404
:102D90008430910509F4B2C01CF4029788F14AC34B
:102DA0008B31910509F4E9C04C9709F40EC142C377
:102DB0008A35910509F4CAC244F48E31910509F4AB
:102DC0001FC18A9709F4F5C135C38B35910509F404
:102DD000C1C28C35910509F02DC397E5292E91E0EC
:102DE000392E2EE0E22E2BE0F22E8AE99BE099A705
:102DF00088A73AE8C32E3BE0D32E00E010E0E9C2FA
:102E000080912701882311F40C948D2657E5852E97
:102E100051E0952E6DE5E62E6BE0F62E0AE91BE0FB
:102E20007AE8A72E7BE0B72EE6E5CE2EE2E0DE2E96
:102E3000712CD4018D914D010E9415B9882319F18F
:102E40000E94E2B8F6012081211104C020915A02AB
:102E5000222341F0D8012D913D914D915C910E942A
:102E600058EB0AC0B3E07B1639F0F50120813181BF
:102E7000428153810E9457EBD7016D937D938D93CF
:102E80009C9313970AC0F80180819181A281B3813C
:102E9000F70180839183A283B3837394F4E0EF0EF0
:102EA000F11C0C5F1F4F24E0A20EB11C3FEFC31AB0
:102EB000D30A44E07412BDCF86E40E945EB9882331
:102EC000C9F00E94E2B820E030E0A9010E94DBECEA
:102ED000181684F40E94E2B820E030E040E752E4A3
:102EE0000E94DBEB6093190170931A0180931B0120
:102EF00090931C010E9485480C948D2680E50E94C9
:102F00005EB9882329F00E949EB86B017C0103C042
:102F1000C12CD12C760183E50E945EB9882361F033
:102F20000E94E2B820E030E04AE754E40E9404E561
:102F30000E9454EC6B017C010E94C84380916202A4
:102F4000811105C060E085E692E00E94BC8A0E9483
:102F5000EED0C60ED71EE81EF91E0E94EED0DC0190
:102F6000CB018C199D09AE09BF09B7FD02C00C94B5
:102F70008D2680E00E942A47F0CF0E9419518111CE
:102F80000C948D2680E090E0A0E2B1E489839A83DE
:102F9000AB83BC838D839E83AF83B88789879A87F1
:102FA000AB87BC8780E50E945EB9882319F00E9438
:102FB000AEB801C060E068A3BE016F5F7F4FCE0175
:102FC00080960E94E1A90C948D268091890B8770D0
:102FD000873011F00C9492268FE40E945EB988230A
:102FE00019F00E94D2B803C08FE40E9415B9811174
:102FF0000C948D260C9492260E940C5E0C948D26C7
:10300000C0909A0BD0909B0BE0909C0BF0909D0B86
:1030100088E50E945EB9811109C020E030E040E2FD
:1030200052E4C701B6010E9457EB02C00E94E2B809
:1030300068A379A38AA39BA3C0909E0BD0909F0BFB
:10304000E090A00BF090A10B89E50E945EB9811180
:1030500009C020E030E040E251E4C701B6010E941F
:1030600057EB02C00E94E2B89B01AC0169837A83EE
:103070008B839C8368A179A18AA19BA10E941F4692
:10308000882311F40C948D2680E00E949C5A0E94A3
:10309000885B85E40E945EB9882321F00E94D2B843
:1030A000182F04C085E40E9415B911E086E50E943E
:1030B0005EB9882321F00E94AEB8262F01C021E01E
:1030C000412FBE016F5F7F4FCE0180960E94065355
:1030D0006B017C019B01AC010E9459ED81115FC025
:1030E00088A099A0AAA0BBA020E030E0A901C5015A
:1030F000B4010E949EE487FF05C027E137EB41E55C
:1031000058EB04C027E137EB41E558E3C501B401B2
:103110000E9458EBAB01BC0185E992E00E9457D3B5
:1031200089809A80AB80BC8020E030E0A901C50195
:10313000B4010E949EE487FF05C027E137EB41E51B
:1031400058EB04C027E137EB41E558E3C501B40172
:103150000E9458EBAB01BC0180E992E00E9457D37A
:1031600020E030E0A901C701B6010E949EE487FF7C
:1031700005C027E137EB41E558EB04C027E137EB09
:1031800041E558E3C701B6010E9458EBAB01BC0111
:103190008BE892E00E9457D38AE00E9485B90E9492
:1031A0006F5B113011F40E94DB5C0E9411810C9462
:1031B0008D2680912701882311F40C948D2689E4B3
:1031C0000E945EB9082F882321F00E94AEB8E62E37
:1031D00001C0E12C8AE40E945EB9182F882321F0F7
:1031E0000E94AEB8F62E01C0F12C002319F052E077
:1031F0005E1528F0112389F082E08F1570F4EDE957
:10320000F2E084918F010F5F1F4F882311F40C941B
:103210008D260E9485B9F801F4CF0E9471B9002370
:10322000F1F02091350F3091360F4E2D4203B00151
:10323000439F700D11248091E60E9091E70E680F68
:10324000791F072E000C880B990B0E94A5E4609350
:103250005D0B70935E0B80935F0B9093600B11235B
:10326000F1F02091370F3091380F5F2D5203B001EC
:10327000539F700D11248091E80E9091E90E680F14
:10328000791F072E000C880B990B0E94A5E4609310
:10329000610B7093620B8093630B9093640B80E5DA
:1032A0000E945EB98823E9F00E94D2B88823A9F170
:1032B0000023D9F020E030E040E252E460915D0B61
:1032C00070915E0B80915F0B9091600B0E9458EBA8
:1032D00060935D0B70935E0B80935F0B9093600B1C
:1032E00004C080E50E9415B9E1CF1123B1F020E0C0
:1032F00030E040E251E46091610B7091620B80918B
:10330000630B9091640B0E9458EB6093610B709378
:10331000620B8093630B9093640B86E40E945EB90A
:10332000882309F4E7CD0E94E2B86B017C0120E01C
:1033300030E0A9010E94DBEC18160CF0DBCD20E098
:1033400030E040E752E4C701B601CACD10925A02FC
:103350000C948D2620935A020C948D260E94E2B87C
:103360002B013C01133049F0F6012081318142816B
:1033700053810E9457EB2B013C01A8A5B9A52D91C3
:103380003D914D915C91C301B2010E9457EB4B01FD
:103390005C012DEB37E346E855EB0E94DBEC87FD43
:1033A00020C02DEB37E346E855E3C501B4010E9488
:1033B0009EE41816B4F01F5FB4E0EB0EF11CE8A514
:1033C000F9A53496F9A7E8A7F4E0CF0ED11C143084
:1033D00039F1D1018D911D010E945EB9882359F305
:1033E000BDCF133051F44092A60B5092A70B6092C0
:1033F000A80B7092A90B01E0DECFA5019401F701A3
:1034000060817181828193810E9458EBD7016D9315
:103410007D938D939C931397812F0E948A62CBCFCB
:10342000002321F086EA9BE00E9451500E94118106
:103430000C948D260E9428570C948D268091191685
:1034400090911A168E36910509F4D0C40CF09CC0E8
:103450008032910509F48EC30CF04AC08731910582
:1034600009F416C24CF58231910509F4EDC5BCF49E
:1034700097FF02C00C943C26823091050CF448C1A1
:10348000419711F00C943C2660E08FEC92E00E9492
:10349000BC8A5E985E9815985E980C948D2685314E
:1034A000910509F4EBC10CF0EDC1449711F00C94B7
:1034B0003C26E7EEF2E0A4C18B31910509F443C24A
:1034C0003CF48931910509F422C20CF4F7C12DC2F4
:1034D0008D31910511F40C948D260CF4AFC28E3110
:1034E000910509F4B5C24F9709F490C30C943C269A
:1034F0008335910509F4A5C524F58C34910509F4AB
:103500004CC484F48934910509F436C48B34910594
:1035100009F43FC4C09711F00C943C260E94DB8153
:103520000C948D268135910509F474C50CF086C57F
:103530008D34910511F00C943C260E9494660C94F5
:103540008D268936910509F468C474F48C3591058B
:1035500009F4ADC58836910509F423C48435910575
:1035600011F00C943C2670C58B36910509F4C4C447
:103570000CF4A6C48C36910509F449C48D36910526
:1035800009F466C40C943C26823231E0930711F4AE
:103590000C94D2230CF050C08C38910509F46CC403
:1035A00014F58537910509F453C68CF482379105DB
:1035B00009F406C68337910509F4A7C08037910541
:1035C00011F00C943C2688EA93E00E94BC468737B1
:1035D000910509F499C60CF44AC68D37910509F492
:1035E0009BC40C943C268C3C910509F4CCC674F425
:1035F000893C910509F48BC68B3C910509F4A7C65B
:103600008E3B910511F00C943C264CC48C3D9105E9
:1036100009F4ADC734F48D3C910509F429C70C9425
:103620003C268D3D910509F4AFC78831914011F4D6
:103630000C9427230C943C26843FA1E09A0711F4B4
:103640000C948D2574F58039E1E09E0711F40C94FB
:10365000982494F48F3221E0920711F40C947F2483
:10366000833631E0930709F44CC08D32914011F05C
:103670000C943C260C94DF23823951E0950711F419
:103680000C94A12414F40C949B248A39B1E09B0778
:1036900009F4C0C3843A914011F40C94A9240C9409
:1036A0003C26883FF1E09F0711F40C949F256CF4B1
:1036B000863F31E0930711F40C94902514F00C949C
:1036C00093250E94E5AF0C948D26833553E0950732
:1036D00011F40C94C2254CF48835924011F00C94EE
:1036E0003C260E94EB840C948D26803AE3E09E07F2
:1036F00009F47FC2873E934011F40C9427260C9462
:103700003C26E1ECF6E00C948524ECE0F4E095C571
:10371000A0901716B090181680E50E945EB9882315
:1037200059F00E949EB86B017C0111E0672B682B59
:10373000692B31F410E004C010E0C12CD12C7601CB
:1037400083E50E945EB9882311F40C9461280E94DD
:10375000E2B820E030E04AE754E40E9404E50E9429
:1037600054EC6B017C0111110BC0672B682B692B8A
:1037700039F4A114B10421F0D5018C91811102C05A
:1037800010E001C011E00E94C843112329F061E05C
:10379000C5010E94F68A05C060E08CEB92E00E94B1
:1037A000BC8A83E080935C0B81E080935B0BC11447
:1037B000D104E104F104B1F00E94EED0C60ED71E90
:1037C000E81EF91E0E94EED0DC01CB018C199D0988
:1037D000AE09BF09B7FF0EC080915B0B81110C943D
:1037E000662808C080915B0B882321F080E00E944E
:1037F0002A47F8CF0E9436C410925B0B0C948D269A
:1038000084918F010F5F1F4F882321F00E9485B99B
:10381000F801F6CF10928A058DE393E00E9456B22C
:103820008BE1EDE3F3E0DE01159601900D928A95B0
:10383000E1F780913B0390913C039C838B838FE560
:1038400091E09A83898340E050E0BE016F5F7F4F33
:1038500080E090E00E94F42ECE0101960E94A046E6
:10386000E8EDF2E084918F010F5F1F4F882311F480
:103870000C948D260E9485B9F801F4CF0E94AB51BB
:103880000C948D2610920C0310920D030C948D262F
:10389000E0911716F09118168081882329F0803264
:1038A00009F410823196F8CF40E061E0809117165C
:1038B000909118160E94B9310C948D2680E090E00A
:1038C000A8E4B2E489839A83AB83BC8318A219A2CB
:1038D0001AA21BA21CA21DA21EA21FA280916102FD
:1038E000882351F0AE014F5F5F4FBE01605E7F4F96
:1038F000CE0184960E94A45580910D03882319F06F
:1039000081E080930C030E945B660C948D261092DC
:103910000C030E947F6688EF92E090934F0B809398
:103920004E0B0E94F7B70C948D2680910D038823CF
:1039300011F40C948D2683E50E945EB981110C94DC
:103940006B280C948D2683E40E9415B98823A1F17D
:10395000EAE2F3E084918F010F5F1F4F882321F08B
:103960000E9485B9F801F6CF8091D804811103C077
:10397000EDEFF2E012C0BE016F5F7F4F85ED94E086
:103980000E941DB18E010F5F1F4FF80181918F01C1
:10399000882369F00E9485B9F8CF84918F010F5F69
:1039A0001F4F882321F00E9485B9F801F6CF8AE0E5
:1039B0000E9485B90C948D2680910D03882339F0DF
:1039C00080910C03882319F0E7E0F3E003C0E9E1FC
:1039D000F3E028C084918F010F5F1F4F882321F0EF
:1039E0000E9485B9F801F6CF609186057091870530
:1039F00080918805909189054AE00E9434BC8FE24D
:103A00000E9485B96091820570918305809184053B
:103A1000909185054AE00E9434BC8AE00E9485B9F5
:103A20000C948D2684918F010F5F1F4F882311F412
:103A30000C948D260E9485B9F801F4CF40E060E037
:103A400080911716909118160E94B9310C948D260A
:103A500080910D03882311F40C948D2685ED94E05C
:103A60000E949CCC85ED94E00E94F8B010920B036C
:103A700010920A0380910D03882311F40C948D2673
:103A800000911716109118160E94B32EB801CE019E
:103A900080960E94FD308C01892B11F40C948D26A8
:103AA00068A179A16115710511F06C5F7F4F1982D2
:103AB0001C8222E0A801CE0101960E94A7B68111C6
:103AC00002C0F12C14C0CE0101960E94212E882341
:103AD000C1F361E0CE0101960E9401B1009789F324
:103AE00025EEDC012C931C820E9441CAF82ECE01E7
:103AF00001960E946BB9F11003C0E7E4F3E022C025
:103B0000E9E3F3E084917F01BFEFEB1AFB0A88231E
:103B100021F00E9485B9F701F5CFF80181918F015D
:103B2000882319F00E9485B9F8CF8AE00E9485B9F0
:103B300010928605109287051092880510928905CB
:103B40000C948D2684917F012FEFE21AF20A8823CC
:103B500021F00E9485B9F701F5CFD8018D918D0133
:103B6000882319F00E9485B9F8CF8EE20E9485B9AA
:103B70000C948D2680910C0381110E94C843809182
:103B80000D03882311F40C948D2680E50E945EB904
:103B9000882319F00E94D2B803C080E50E9415B9AD
:103BA000182F482F61E080911716909118160E94E7
:103BB000B93183E50E945EB9882381F00E94AEB8D6
:103BC000AB01BC014093860550938705609388053F
:103BD0007093890585ED94E00E940EB080910D03ED
:103BE000882319F081E080930C0311110C948D2629
:103BF0008ACE809117169091181621E020930B031E
:103C000040E060E00E94B9310C948D260E940C6661
:103C10007B018C0120E831E541E050E00E94F4EAAC
:103C2000C9016DE671E00E9471ED4B015C01C801B4
:103C3000B70120E13EE040E050E00E94F4EACA0112
:103C4000B90128E130E040E050E00E94F4EA762E2D
:103C5000672EC62ED72E8CE3282E312C412C512CCA
:103C6000C801B701A20191010E94F4EAF62EE72EE5
:103C7000CA01B901A20191010E94F4EACB018E01AF
:103C80000F5F1F4F8114910499F0EF92FF927F9381
:103C90006F936F927F92BF92AF929F928F9287E8BD
:103CA00093E09F938F931F930F930E9436E413C06A
:103CB000A114B104B1F0EF92FF927F936F936F92D2
:103CC0007F92BF92AF9287E793E09F938F931F936A
:103CD0000F930E9436E40FB6F894DEBF0FBECDBF3F
:103CE00030C0CD2879F0EF92FF927F936F936F925F
:103CF0007F928BE693E09F938F931F930F930E9485
:103D000036E4E9CF892B69F0EF92FF927F936F93AE
:103D100083E693E09F938F931F930F930E9436E463
:103D2000DACFEF92FF928FE593E09F938F931F93EB
:103D30000F930E9436E40F900F900F900F900F900A
:103D40000F9060E0C8010E94F68AE0EFF6E08491EF
:103D50007F019FEFE91AF90A882321F00E9485B9B3
:103D6000F701F5CFB8018BE993E00E948DD38AE08B
:103D70000E9485B90C948D2680910C0381110C94BE
:103D80008D2680E50E9415B981110C947C280C9435
:103D90008D260E945B660C948D260E947F660C9493
:103DA0008D2688E690E00E94CA6281110C948D26CF
:103DB00083E50E945EB9882311F40C948D260E943D
:103DC000E2B80E944DECCB010E94578A0E94E2B8F3
:103DD00020E030E04AEA52E40E949EE418160CF417
:103DE0009CC70E9494660E9436C497C78EE40E94C6
:103DF0005EB9882309F491C70E94AEB860935D0252
:103E000070935E0280935F029093600286C7109267
:103E1000140183C70E94997C80C789E690E00E94C4
:103E2000CA62811111C0E1EBF3E084918F010F5F51
:103E30001F4F882321F00E9485B9F801F6CF0E9418
:103E40005A708AE00E9485B910925C0B0C94A22CE7
:103E50008DE690E00E94CA6281115FC783E50E94EF
:103E60005EB988AB81110C94872882E50E945EB907
:103E700081110C94872851C783E50E945EB988237D
:103E800009F44BC70E94E2B80E944DEC63377105FC
:103E900014F063E770E07093EE0F6093ED0F0E94F3
:103EA0009B733BC783E50E945EB98AAF81110C9476
:103EB0007E2A82E50E945EB981110C947E2A2DC76C
:103EC00080E50E945EB9811106C083E50E945EB95B
:103ED000882359F005C00E94BEB881111EC7F5CFD6
:103EE0000E94AEB86F3F710510F06FEF70E07093F5
:103EF000F00F6093EF0F11C780E50E945EB981114A
:103F000005C01092F00F1092EF0F07C70E94AEB8D5
:103F1000672B09F002C7F5CF8CE40E9415B98823FE
:103F200081F00E94E2B86B017C0120E030E0A90141
:103F30000E94DBEC87FF0AC0F7FAF094F7F8F094E0
:103F400005C0C12CD12CE12CB0E4FB2EF7FAF09483
:103F5000F7F8F094CCA2DDA2EEA2FFA280E090E000
:103F6000A0E2B1E489839A83AB83BC838D839E8373
:103F7000AF83B88789879A87AB87BC8788E50E941B
:103F80005EB9882379F088E50E945EB9882319F02C
:103F90000E94E2B803C060E070E0CB0169837A83DD
:103FA0008B839C8389E50E945EB9882379F089E53B
:103FB0000E945EB9882319F00E94E2B803C060E055
:103FC00070E0CB016D837E838F8398878AE50E94A2
:103FD0005EB9882379F08AE50E945EB9882319F0DA
:103FE0000E94E2B803C060E070E0CB0169877A8785
:103FF0008B879C8718A219A21AA21BA220E0AE01EF
:10400000405E5F4FBE016F5F7F4FCE0184960E947E
:10401000BC8383C60E94E7730E9406441092F00F8F
:104020001092EF0F68EE73E080E090E00E94EC8960
:1040300060E084EF93E00E94BC8A6FC61092590240
:104040006CC62093590269C683E50E945EB9882335
:1040500099F00E94E2B820E030E04AE754E40E9480
:1040600004E50E9454EC6093100170931101809359
:1040700012019093130151C688E50E9415B9811170
:104080000C94A92B89E50E9415B981110C94A92BD8
:104090008AE50E9415B981110C94A92B85E40E9430
:1040A00015B981110C94A92B0E94064436C6F7E578
:1040B000CF2EF1E0DF2EA7ECEA2EADE0FA2E10E0D5
:1040C000F60181916F010E9415B9882309F46EC031
:1040D000133009F063C00E94E2B84B015C0120E09C
:1040E00030E040EA51E40E949EE487FF4EC0A50103
:1040F00094016091D30D7091D40D8091D50D909164
:10410000D60D0E94DBEB2B013C019B01AC016091C1
:10411000C90A7091CA0A8091CB0A9091CC0A0E9478
:1041200004E56093C90A7093CA0A8093CB0A9093FE
:10413000CC0AA30192016091E10A7091E20A809198
:10414000E30A9091E40A0E9404E56093E10A709307
:10415000E20A8093E30A9093E40A6091141170914B
:10416000151180911611909117110E94A3E4A301DB
:1041700092010E9404E50E9454EC60931411709324
:10418000151180931611909317118092D30D909270
:10419000D40DA092D50DB092D60D08C00E94E2B801
:1041A000D7016D937D938D939C9313971F5FB4E01C
:1041B000EB0EF11C143009F083CF0E94DDD4ADC5A5
:1041C0000E94C84383E50E945EB9882309F42EC982
:1041D0000E94AEB86230710509F028C90E94C24C35
:1041E0008BE50E9485B96091FE0A7091FF0A80916B
:1041F000000B9091010B42E00E94BDBC4091020B6C
:104200005091030B6091040B7091050B89E094E0D1
:104210000E9457D34091060B5091070B6091080BF9
:104220007091090B86E094E00E9457D38DE50E94BF
:1042300085B98AE00E9485B970C584918F010F5FAE
:104240001F4F882309F469C50E9485B9F801F5CF8D
:104250008091171690911816FC012081222321F0DD
:1042600060E00E94F68A59C50E9436C456C5009186
:1042700017161091181683E0D12C40E08150E9F018
:10428000D8019C91292F2B7F2134C1F711962C91B5
:104290002133A1F7913421F0953421F441E002C09B
:1042A000DD24D39498012E5F3F4F89012F5F3F4F4C
:1042B000F80190819032C9F3E1CF442369F0E0EF37
:1042C000F6E084917F012FEFE21AF20A882321F0B1
:1042D0000E9485B9F701F5CFDD2069F0E7E8F4E049
:1042E00084917F013FEFE31AF30A882321F00E94B3
:1042F00085B9F701F5CFD8018D918D01882309F497
:1043000056CB0E9485B9F7CF0E94F4AA06C5E7E50F
:10431000EE2EE1E0FE2E08E111E1F70181917F012F
:104320000E9415B9882351F00E94E2B80E9454EC13
:10433000D8016D937D938D939C9313970C5F1F4FC2
:10434000B1E108321B0749F70E94A8D3E6C477E51C
:10435000E72E71E0F72E05ED1AE0F70181917F015C
:104360000E9415B9882341F00E94E2B8D8016D93EC
:104370007D938D939C9313970C5F1F4FBAE0053E7E
:104380001B0759F7CAC483E50E945EB98823A1F0D0
:104390000E94E2B86093D10A7093D20A8093D30A44
:1043A0009093D40A6093CD0A7093CE0A8093CF0A7B
:1043B0009093D00A10E001C011E080E50E945EB940
:1043C000882359F00E94E2B86093D10A7093D20A10
:1043D0008093D30A9093D40A10E082E50E945EB9DC
:1043E000882359F00E94E2B86093570B7093580BE2
:1043F0008093590B90935A0B10E084E50E945EB9AC
:10440000882359F00E94E2B86093CD0A7093CE0AD7
:104410008093CF0A9093D00A80C4112309F47DC4FD
:104420004091D10A5091D20A6091D30A7091D40A76
:1044300081E994E00E9457D34091570B5091580B5B
:104440006091590B70915A0B8EE894E00E9457D3FB
:104450004091CD0A5091CE0A6091CF0A7091D00A56
:104460008BE894E00E9457D38AE00E9485B955C436
:1044700081E50E9415B9882351F00E949EB860938F
:10448000E50A7093E60A8093E70A9093E80A83E5C9
:104490000E9415B9882351F00E94E2B86093ED0A9A
:1044A0007093EE0A8093EF0A9093F00A84E50E94DD
:1044B00015B9882351F00E94E2B86093E90A70931D
:1044C000EA0A8093EB0A9093EC0A88E50E9415B9FA
:1044D000882351F00E94E2B86093BD0A7093BE0A2F
:1044E0008093BF0A9093C00A89E50E9415B988237A
:1044F00051F00E94E2B86093C10A7093C20A80939F
:10450000C30A9093C40A8AE50E9415B98823F1F082
:104510000E94E2B86093C50A7093C60A8093C70AE6
:104520009093C80A2DEC3CEC4CEC5DE30E949EE4B9
:10453000181664F0E1EAF4E084918F010F5F1F4FD9
:10454000882321F00E9485B9F801F6CF85E40E9406
:1045500015B9882309F4E1C30E94E2B86093C90A3F
:104560007093CA0A8093CB0A9093CC0AD6C383E592
:104570000E945EB9882309F4D0C30E94AEB870933C
:10458000360160933501C9C38DED90E00E94CA6287
:104590008111C3C383E50E945EB9811103C0E0EFBE
:1045A000F6E02FC000916C0E10E00E94AEB8000F34
:1045B000111FF801ED5CFE4F7183608380916C0EDA
:1045C00090E08C01000F111F000F111F015D1E4FA5
:1045D000880F991FFC01ED5CFE4F60817181072EF1
:1045E000000C880B990B0E94A5E42AE037ED43E20A
:1045F0005CE30E9404E5F801608371838283938306
:104600008CC384918F010F5F1F4F882321F00E947C
:1046100085B9F801F6CF85E40E9485B980916C0ECA
:10462000805D0E9485B9E0916C0EF0E0EE0FFF1FF7
:10463000ED5CFE4F6081718183ED94E00E9474D344
:1046400085E20E9485B98AE00E9485B966C380E54B
:104650000E9415B9882309F460C30E94AEB86B01AB
:104660007C018B01672B19F0E1ECF6E07FC083E55C
:104670000E9415B9811103C0E0EFF6E007C00E9467
:10468000AEB887E093E00E94C7D147C384917F0111
:104690002FEFE21AF20A882321F00E9485B9F70170
:1046A000F5CF60E070E084EF94E00E9474D38091D5
:1046B000090328E532E06901C81AD10887FDD394BF
:1046C000CC0CDD1CCC0CDD1C0D2C000CEE08FF0806
:1046D0008091080328E830E04901881A910887FD95
:1046E0009394880C991C880C991C092C000CAA081E
:1046F000BB08809107038F3FB9F090E0FC01EE0FFB
:10470000FF1F8E0F9F1FFC01EE51FD4F0181128193
:10471000B3E0000F111FBA95E1F784E016950795F5
:104720008A95E1F70E5F1F4F98012F5F3F4FC90138
:10473000330FAA0BBB0B9C01AD01281939094A099B
:104740005B09A4EBB0E00E9435EBA70196012819A4
:1047500039094A095B090E9416EBB90181EF94E01F
:104760000E9474D38AE00E9485B9D7C284918F01D8
:104770000F5F1F4F882321F00E9485B9F801F6CF03
:10478000B6018AEE94E00E9474D3EBEDF4E08491DC
:104790008F010F5F1F4F882309F4BFC20E9485B9A4
:1047A000F801F5CF8AE50E945EB981110C94CE2BF9
:1047B00083E50E945EB981110C94CE2BAEC285E4D4
:1047C0000E945EB9811110C080E50E9415B988234E
:1047D00091F00E94E2B860938D0E70938E0E8093DC
:1047E0008F0E9093900E07C00E94BEB8882361F38D
:1047F000E1ECF6E071C089E40E9415B9882381F0EC
:104800000E94E2B82CEA35EC47E25EE30E9404E540
:104810006093950E7093960E8093970E9093980EDA
:1048200084E40E9415B9882381F00E94E2B82CEA42
:1048300035EC47E25EE30E94DBEB6093910E7093F0
:10484000920E8093930E9093940EE0EFF6E0849195
:104850008F010F5F1F4F882321F00E9485B9F80157
:10486000F6CF40918D0E50918E0E60918F0E70910B
:10487000900E85E195E00E9457D32CEA35EC47E293
:104880005EE36091950E7091960E8091970E9091D7
:10489000980E0E94DBEBAB01BC0181E195E00E9428
:1048A00057D32CEA35EC47E25EE36091910E7091AC
:1048B000920E8091930E9091940E0E9404E5AB01AC
:1048C000BC018DE095E00E9457D38AE00E9485B933
:1048D00024C20E9485B9F80184918F010F5F1F4F98
:1048E0008111F7CFE9E1F5E084918F010F5F1F4F50
:1048F000882309F412C20E9485B9F801F5CF0E94FD
:10490000D67C0BC20E9485B9F80184918F010F5F9C
:104910001F4F8111F7CFEBE2F5E084918F010F5F1C
:104920001F4F882309F4F9C10E9485B9F801F5CF1A
:104930000E94C843F2C181E00E946D5D0E94118116
:10494000ECC180E00E946D5D0E94DB5C0E941181E1
:10495000E4C183E50E9415B9882349F00E94D2B8CA
:10496000182F811106C080E00E949C5A02C010914D
:10497000BC0A80919A0B90919B0BA0919C0BB091DB
:104980009D0B89839A83AB83BC8380919E0B90910E
:104990009F0BA091A00BB091A10B8D839E83AF8341
:1049A000B8878091A20B9091A30BA091A40BB0911A
:1049B000A50B89879A87AB87BC878091350F90912B
:1049C000360F892B09F464C783E40E9415B9882344
:1049D00009F45EC70E94E2B81B012C0103E0612CC0
:1049E000712C48EC48A752EC5CA718AA812C88ECE3
:1049F00089AB92E49DAB0150C8F163E0F62E802FA5
:104A000090E06C01CC0CDD1CC80ED91EFA94F601A6
:104A1000EF0DF11DEE0FFF1FEE0FFF1FE75CF04FD4
:104A20009080A180B280E38028A9382D49A95DA992
:104A3000692D7A2D8B2D9E2D0E949EE487FF04C048
:104A400098AA8A2CB9AAEDAA292D3A2D4B2D5E2DB4
:104A5000B30188A59CA50E949EE487FF04C0692C31
:104A60007A2CB8A6ECA6F110D1CFC5CF930148A5FA
:104A70005CA568A9782D89A99DA90E9458EB20E022
:104A800030E040E05FE30E9404E5A20191010E9452
:104A900058EB2B013C012DEB37E346E855EB0E9428
:104AA000DBEC87FD0BC02DEB37E346E855E3C30194
:104AB000B2010E949EE418160CF0EAC680E00E9443
:104AC0009C5A43E0B42EBA943FEFB31609F4E0C603
:104AD00003E08B2D90E06C01CC0CDD1CC80ED91EC0
:104AE000015088F37601E00EF11CC701880F991F71
:104AF000880F991FAC01475C504F7A01A3019201C6
:104B0000D7016D917D918D919C910E9457EBF7019A
:104B10006083718382839383E3CF0E94909BFDC067
:104B20000E94C6AEFAC083E50E9415B9882321F021
:104B30000E94D2B891E089270E944BABEEC020932F
:104B40002C0F0E94BA9510922C0F882309F4E5C00F
:104B5000E0EFF6E084918F010F5F1F4F811103C0DA
:104B6000E7E6F5E004C00E9485B9F801F3CF84912F
:104B70008F010F5F1F4F882309F4CFC00E9485B9B2
:104B8000F801F5CF8AE50E945EB9811103C0E0EF1C
:104B9000F6E03BC00E94E2B86B017C0120E030E00F
:104BA00040EA50EC0E94DBEC87FD0AC020E030E0D8
:104BB00040E85FE3C701B6010E949EE418161CF4AA
:104BC000E1ECF6E00CC0C092960BD092970BE0920D
:104BD000980BF092990BA1C00E9485B9F8018491BD
:104BE0008F010F5F1F4F8111F7CFE2E7F5E084914E
:104BF0008F010F5F1F4F882309F48FC00E9485B972
:104C0000F801F5CF0E9485B9F80184918F010F5FFB
:104C10001F4F8111F7CFE0E9F5E084918F010F5F1D
:104C20001F4F882321F00E9485B9F801F6CF4091EB
:104C3000960B5091970B6091980B7091990B8DE8A2
:104C400095E00E9457D38AE00E9485B966C081E052
:104C5000809327011092B60D83E50E945EB98823E8
:104C600039F00E94D2B8811158C00E9450D555C069
:104C700083E50E9415B9F7CF0E9428574EC0F090E7
:104C800019160E94C8431091BC0A80E00E949C5AE9
:104C9000FF2029F1E0EFF6E084918F010F5F1F4FB5
:104CA000882321F00E9485B9F801F6CF84E50E949F
:104CB00085B96F2D70E080E090E04AE00E9434BC3E
:104CC00080E20E9485B9E1EBF5E084918F010F5FEE
:104CD0001F4F882311F10E9485B9F801F6CF109279
:104CE000820B812F0E949C5AE0EFF6E084918F01A5
:104CF0000F5F1F4F882321F00E9485B9F801F6CF7E
:104D00006091820B70E08FE995E00E9474D38AE095
:104D10000E9485B902C00E94285710925C0B0E9425
:104D2000D94E10C60E94C84380E00E949C5A84EF6E
:104D300091E0A0E0B0E089839A83AB83BC83BE019D
:104D40006F5F7F4F80EA0E941A5B0E94395B0E946E
:104D5000885B11E01093990588E50E9415B9382EFB
:104D600089E50E9415B9282E8AE50E9415B988ABFD
:104D7000311005C0211005C058A9152705C0211004
:104D800002C010E001C018A90E9471B982E50E941A
:104D90005EB9882361F00E94E2B86B017C0120E0DB
:104DA00030E0A9010E949EE4882379F106C0C12C5D
:104DB000D12C40E2E42E41E4F42E111105C0311053
:104DC00003C0222009F40CC1C092650BD092660B7F
:104DD000E092670BF092680BA70196016091A20B1D
:104DE0007091A30B8091A40B9091A50B0E949EE45F
:104DF00087FF0BC019821A821B821C82BE016F5F63
:104E00007F4F85E69BE00E94BC5C11110DC0311004
:104E100003C02110E0C0E4C0211006C080E00E9461
:104E2000B2441123B1F3D7C010929E0B10929F0B86
:104E30001092A00B1092A10B10929A0B10929B0B48
:104E400010929C0B10929D0B0E9457B8E7EDF9E071
:104E5000849189AFEBECF9E0C590D590E590F490A2
:104E6000EFECF9E085909590A590B490A70196019C
:104E7000C501B4010E949EE487FF05C0A701960109
:104E8000C501B40104C0A5019401C701B6010E9487
:104E9000DBEB2B013C01EEE8F9E0259135914591E2
:104EA000549128A739A74AA75BA7EAE8F9E08591BA
:104EB0009591A591B4918CA79DA7AEA7BFA79C0182
:104EC000AD0168A579A58AA59BA50E94DBEC181603
:104ED00044F49CA599ABADA5ADAB0EA5BFA5B8A7F5
:104EE00007C0E8A5E9ABF9A5FDAB0AA52BA528A746
:104EF000A3019201C301B2010E9404E520E030E069
:104F000040E85FE30E9458EB0E9419ED29A93DA9F2
:104F1000402F58A50E9404E56CA37DA38EA39FA3F8
:104F2000E8EDF9E0049120E030E040EC5FE3C501FA
:104F3000B4010E9404E54B015C01602F000F770B68
:104F4000880B990B0E94A5E49B01AC01C501B4013B
:104F50000E9404E569837A838B839C8320E030E0A0
:104F600040EC5FE3C701B6010E9404E56B017C01E0
:104F700039AD632F330F770B880B990B0E94A5E493
:104F80009B01AC01C701B6010E9404E568A379A3A7
:104F90008AA39BA3AE014C5D5F4FBE016F5F7F4F45
:104FA000CE0180960E949A5C0E9440AB10929E0BAC
:104FB00010929F0B1092A00B1092A10B10929A0BC3
:104FC00010929B0B10929C0B10929D0B111126CFEF
:104FD000311024CF1ECF81E00E94B244111104C0D1
:104FE00048A9442309F45FC08091890B8370833002
:104FF000F1F060E08DE792E00E94BC8AE0EFF6E01D
:1050000084918F010F5F1F4F811103C0EEE6F2E024
:1050100004C00E9485B9F801F3CF84918F010F5F1E
:105020001F4F8823F1F10E9485B9F801F6CF0E9445
:1050300057B88091A20B9091A30BA091A40BB091B3
:10504000A50B8093650B9093660BA093670BB093B1
:10505000680B80E090E0ADE1B3E480935D0B90934A
:105060005E0BA0935F0BB093600B80E090E0AEEF1F
:10507000B2E48093610B9093620BA093630BB093A7
:10508000640B19821A821B821C82AE014F5F5F4F34
:1050900061E67BE08DE59BE00E949A5C82E00E94E5
:1050A000B2440E94DB5C0E9457B8809198058093BF
:1050B00099050E946F5B83E080931D010E9411811E
:1050C0002CCE11110C94C01B0C94B91B80E00E94D3
:1050D0002A470C94E21B0E94AEB8AB01BC0140937E
:1050E000860550938705609388057093890585ED43
:1050F00094E00E940EB011CE0E94BEB8853620F01A
:1051000084E68093F10E09CE8093F10E06CE0E94C4
:10511000E2B80E944DECCB010E94578A0E94E2B88F
:1051200020E030E04AEA52E40E949EE418162CF097
:105130000E9494660E9436C402C00E945B66609121
:10514000830B7091840B072E000C880B990B0E9427
:10515000A5E46B017C0180907E0B90907F0BA0906A
:10516000800BB090810BA50194010E94DBEC181616
:105170005CF0A8A9A11110C0A5019401C701B60156
:105180000E94DBEC18161CF485EC93E002C088EB5F
:1051900093E060E00E94BC8A81E080931401109249
:1051A0005C0B1DAA1EAA1FAA18AE1BAE1CAE1DAE1C
:1051B0001EAE19AA1FAEFCE32196FFAF21972CE18A
:1051C00022962FAF229736E423963FAF2397C12C28
:1051D000D12C80E8E82E9FEBF92E412C512C320186
:1051E0006091830B7091840B072E000C880B990B38
:1051F0000E94A5E4162F072F88A79CA79601A70158
:105200000E949EE48823E1F020917E0B30917F0B79
:105210004091800B5091810BB8A9612F702F88A508
:105220009CA5B11107C00E949EE4881F8827881F93
:1052300089AB0AC00E949EE487FD58C119AA04C028
:105240001C2D0D2DE8A6FCA60E94EED06B017C0162
:10525000DC01CB012BAD3CAD4DAD5EAD821B930BA4
:10526000A40BB50BB7FD3BC0D701C60188519C4FBD
:10527000AF4FBF4F8BAF9CAFADAFBEAF0E945A7068
:10528000E4EBF3E084915F019FEFA91AB90A882348
:1052900021F00E9485B9F501F5CF41145104610454
:1052A0007104B9F0D301C20188579C4EAF4FBF4F74
:1052B000BC01CD016C197D098E099F0928EE33E0F0
:1052C00040E050E00E94F4EACA01B9010E94A1BC8A
:1052D00003C08FE30E9485B98AE00E9485B980E00F
:1052E0000E942A470E94EED060930A0B70930B0B2A
:1052F00080930C0B90930D0B20907E0B30907F0BC6
:10530000A091800BA9AFB091810BBAAF9101AD0113
:10531000612F702F88A59CA50E9457EB4B015C0163
:1053200020E030E0A9010E94DBEC87FF04C0B7FA5F
:10533000B094B7F8B094411451046104710459F465
:1053400020E030E040E85FE3C501B4010E949EE444
:1053500087FF0DC00AC020E030E040E450E4C50102
:10536000B4010E94DBEC181614F426013701E9A9F8
:10537000EE23F1F12DA93EA94FA958AD2115310514
:105380004105510541F0D701C601821B930BA40BC7
:10539000B50BB7FD2DC0910149AD5AAD6FAD21964A
:1053A0007FAD219722968FAD229723969FAD2397AD
:1053B0000E9457EB20E030E040EC5FE30E949EE467
:1053C00087FD94C0D701C601805A9541AF4FBF4FAA
:1053D0008DAB9EABAFABB8AF2FAE21963FAE219752
:1053E00099AD22969FAF2297AAAD2396AFAF239790
:1053F00080911401882309F479C041145104610497
:10540000710429F4C12ED02EE8A4FCA4E9CEB8E89A
:10541000CB1AB3E1DB0AE108F108C418D508E608A5
:10542000F708F7FE63C0EECF411451046104710424
:1054300009F424C1D301C20188579C4EAF4FBF4F1E
:10544000BC01CD016C197D098E099F0928EE33E05E
:1054500040E050E00E94F4EACA01B9010E94A1BCF8
:105460008AE00E9485B980E00E942A470E94EED01F
:1054700060930A0B70930B0B80930C0B90930D0BA6
:105480002090EC0E3090ED0EA091EE0EADABB091F1
:10549000EF0EB9AF9101AD01612F702F88A59CA5CA
:1054A0000E9457EB4B015C0120E030E0A9010E9413
:1054B000DBEC87FF04C0B7FAB094B7F8B09441149E
:1054C00051046104710409F0DDC020E030E040E8DF
:1054D0005FE3C501B4010E949EE487FDDEC0E8A938
:1054E000E111DEC080911401811119C18091140174
:1054F000882309F412CC0E9436C40FCC0E94E2B873
:105500000E944DEC633771050CF020C17093EE0FD3
:105510006093ED0F0E949B730E94E2B820E030E0A0
:1055200040EA50E40E94DBEC181614F40E945B661B
:105530006091ED0F7091EE0F072E000C880B990B08
:105540000E94A5E42091EC0E3091ED0E4091EE0EFC
:105550005091EF0E0E94DBEC18161CF485EE93E0E0
:1055600002C086ED93E060E00E94BC8A81E08093F7
:10557000140110925C0B8091820B80936C0E19AA1F
:105580001AAA1BAA1CAA1BAE1CAE1DAE1EAE18AAE0
:105590001FAEECE32196EFAF2197FCE12296FFAF1F
:1055A000229726E423962FAF2397C12CD12C10E805
:1055B000E12E0FEBF02E412C512C32016091ED0FBA
:1055C0007091EE0F072E000C880B990B0E94A5E43A
:1055D000162F072F88A79CA79601A7010E949EE47B
:1055E0008823F1F02091EC0E3091ED0E4091EE0EFB
:1055F0005091EF0E8AAD612F702F811109C088A5DF
:105600009CA50E949EE4881F8827881F88AB0CC039
:1056100088A59CA50E949EE487FD68CF18AA04C0B7
:105620001C2D0D2DE8A6FCA60E94EED06B017C017E
:10563000DC01CB012BAD3CAD4DAD5EAD821B930BC0
:10564000A40BB50BB7FD0FCFD701C60188519C4FF6
:10565000AF4FBF4F8BAF9CAFADAFBEAF0E945A7084
:10566000E2EDF3E084915F019FEFA91AB90A882364
:1056700009F4DACE0E9485B9F501F4CF8FE30E94D8
:1056800085B9EECE20E030E040E450E4C501B4013D
:105690000E94DBEC18160CF022CF260137011FCF39
:1056A00029A93AA94BA95CA9211531054105510544
:1056B00041F0D701C601821B930BA40BB50BB7FDBC
:1056C00011CF91014DA959AD6FAD21967FAD2197B5
:1056D00022968FAD229723969FAD23970E9457EB7A
:1056E00020E030E040EC5FE30E949EE487FDFECEC8
:1056F000D701C601805A9541AF4FBF4F89AB9AABD6
:10570000ABABBCAB2FAE21963FAE21979DA92296A5
:105710009FAF2297A9AD2396AFAF2397E3CE411455
:1057200051046104710429F4C12ED02EE8A4FCA414
:1057300045CFB8E8CB1AB3E1DB0AE108F108C41899
:10574000D508E608F708F7FED1CEEECF63E770E0A4
:10575000DDCE0E94C84388E50E9415B9882331F048
:105760005E9A8091890B8E7F8093890B89E50E94D8
:1057700015B9882331F05E9A8091890B8D7F8093D3
:10578000890B8AE50E9415B9882309F4C6CA159ABF
:105790008091890B8B7F8093890BBFCA0E94E2B8EE
:1057A00020E030E040E050EC0E949EE487FD15C010
:1057B0000E94E2B820E030E040E050E40E94DBECE0
:1057C00018162CF00E94E2B86B017C010BC0C12CB2
:1057D000D12CE12CF0E4FF2E05C0C12CD12CE12C02
:1057E000E0ECFE2E8091890B82FF18C00091C30F60
:1057F0001091C40F2091CF0D3091D00D4091D10D5B
:105800005091D20DC701B6010E9404E50E944DECF3
:10581000600F711F7093C40F6093C30F80E50E94E7
:1058200015B9882329F00E94D2B8882309F475CAD3
:10583000A70196016091960B7091970B8091980B40
:105840009091990B0E9458EB6093960B7093970B75
:105850008093980B9093990BE0EFF6E084918F0181
:105860000F5F1F4F882321F00E9485B9F801F6CF02
:105870004091960B5091970B6091980B7091990BFA
:105880008CEF94E00E9457D38AE00E9485B945CA04
:1058900086E50E9415B9882341F08091350F9091DB
:1058A000360F892B11F00E940A5A812F0E949C5AB0
:1058B000111103C0E0EFF6E01DC08091BC0A811118
:1058C000F9CFE1ECF6E084918F010F5F1F4F81115A
:1058D00003C0E8E4F5E004C00E9485B9F801F3CF05
:1058E00084918F010F5F1F4F882321F30E9485B998
:1058F000F801F6CF84918F010F5F1F4F882321F0AD
:105900000E9485B9F801F6CF8091BC0A882319F06E
:105910006BE172E002C06FE172E08AE395E00E9401
:105920008DD38AE00E9485B94CE050E06AE97BE0C3
:10593000CE0101960E94AFED892B09F4EEC90E94B9
:105940001181EBC9CE5BDF4F0FB6F894DEBF0FBEFF
:10595000CDBFDF91CF911F910F91FF90EF90DF901E
:10596000CF90BF90AF909F908F907F906F905F90FF
:105970004F903F902F9008950F931F93CF93E091F6
:105980008D02F0918E02309719F08FE792E0099521
:105990000091810210918202E091B002F091B10277
:1059A00082E00995E091B002F091B10281E00995A1
:1059B00020E030E045E1B8018FE792E00E94083432
:1059C000C82F882341F022EB32E047E1B8018FE78E
:1059D00092E00E940834E091B002F091B10280E0C0
:1059E00009958C2FCF911F910F910895682F8BE708
:1059F00092E00C94146E0F931F93CF93DF93EC01FE
:105A00008C010A5E1F4FFE018491882331F00E94B1
:105A1000F62C21960C171D07B1F7DF91CF911F913E
:105A20000F9108950F931F93CF93DF93C2E6D2E0B7
:105A300008E712E08991882329F00E94F62C0C17C0
:105A40001D07C1F7DF91CF911F910F91089520910C
:105A50008302309184022817390709F444C09093D7
:105A6000840280938302009709F437C02091960244
:105A7000FC01211107C03596E491E0939702FC01E7
:105A80003C960FC0213039F43F96E491E0939702A1
:105A9000FC01709606C03D96E491E0939702FC01EC
:105AA0003E9684918093980280919702082E000C74
:105AB000990B20919802821B910927FD93952091C3
:105AC0009902203441F0829FC001112426E096956E
:105AD00087952A95E1F780939A0283EC93E390935C
